:100000000C9421070C9468070C9468070C946807FB
:100010000C9468070C9468070C9468070C946807A4
:100020000C9468070C9468070C945D2D0C942F2E8B
:100030000C94D1250C9468070C9468070C946807FD
:100040000C9468070C9468070C9468070C94680774
:100050000C9468070C9439260C9468070C94680774
:100060000C9468070C9468070C9468070C94680754
:100070000C9468070C9468070C9468070C94680744
:100080000C9468070C9468070C9468070C94680734
:100090000C9468070C9468070C9468070C94680724
:1000A0000C9468070C9468070C94680779087B081F
:1000B0007D0888087F0881088308850887088A08E2
:1000C0008C088E0899089008920894089608980859
:1000D000A9089B087B1B7B1BAD1BAD1BEB1B0B1CE3
:1000E0006F1D6F1D4D1C6F1DEE1CEE1C5F1D6F1DE7
:1000F0006F1D681DFB1CFB1CFB1CFB1CFB1CFB1C65
:10010000FB1CFB1CFB1CFB1CFB1CFB1CFB1CFB1C37
:10011000FB1CFB1C0C1D1A1D211D281D321DFE1D64
:10012000FE1D101E101E071E101E101E101EFE1D8E
:10013000FE1D0C1E101E101E0C1E9C2EC32EB52F55
:10014000C32EB52F0F2F322FB52F882F972F2900B1
:100150001E001F0020002100220023002400250093
:10016000260027002D002E002A0035022B00140047
:100170001A000800150017001C0018000C001200DF
:1001800013002F00300031004C003900040016002D
:10019000070009000A000B000D000E000F003300DD
:1001A0003400000028004B00E10000001D001B008F
:1001B0000600190005001100100036003700380055
:1001C000E50052004E00E000E3000000E200000005
:1001D00000002C000000000000000151E40050006D
:1001E00051004F0001003A003B003C003D003E0042
:1001F0003F00400041004200430044004500010030
:100200004A000100C25C5200C35CCF5CD55C0100B7
:1002100001005900620062005900620001004D00B7
:100220000100500051004F000100010001000100D9
:10023000010049004A004B00000001004B00010092
:100240000000005CBD5CBF5CBE5CAA00A800A90009
:1002500001004C004D004E0001004E000100010065
:10026000000001000000000001000000000000008C
:100270000100010001000100010001000100010076
:100280000100010001000100010001000100010066
:100290000100010001000100010001000100010056
:1002A0000100010001000100010001000100010046
:1002B0000100010001000100010001000100010036
:1002C0000100010001000100010001000100000027
:1002D0000100010001000000010001000100010017
:1002E0000100010001000100010001000100010006
:1002F00001000100010000000100000000000100F9
:1003000000000000000001000100010001000100E8
:1003100001000100010001000100010001000100D5
:1003200001000100010001000100010001000100C5
:1003300001000100010001000100010001000100B5
:1003400001000100010001000100010001000100A5
:100350000100010001000100010001000100010095
:100360000100010000000100010001000000010087
:100370000100010001000100010001000100010075
:100380000100010001000100010001000000010066
:10039000000000000100000000000000010001005A
:1003A0000100010001000100010001000100010045
:1003B0000100010001000100010001000100010035
:1003C0000100010001000100010001000100010025
:1003D0000100010001000100010001000100010015
:1003E0000100010001000100010001000100010005
:1003F00001000100010001000100000001000100F6
:1004000001000000010001000100010001000100E5
:1004100001000100010001000100010001000100D4
:1004200001000000010000000000010000000000C9
:1004300000000100010001000100010001000100B5
:1004400001000100010001000100010001000100A4
:100450000100010001000100010001000100010094
:100460000100010001000100010001000100010084
:100470000100010001000100010001000100010074
:100480000100010001000100010001000100010064
:100490000000010001000100000001000100010056
:1004A0000100010001000100010001000100010044
:1004B0000100010001000100000001000000000037
:1004C0000100000000000000010001000100010027
:1004D0000100010001000100010001000100010014
:1004E0000100010001000100010001000100010004
:1004F00001000100010001000100010001000100F4
:1005000001000100010001000100010001000100E3
:1005100001000100010001000100010001000100D3
:1005200001000100010000000100010001000000C5
:1005300001000100010001000100010001000100B3
:1005400001000100010001000100010001000000A4
:100550000100000000000100000000000000010098
:100560000100010001000100010001000100010083
:100570000100010001000100010001000100010073
:100580000100010001000100010001000100010063
:100590000100010001000100010001000100010053
:1005A0000100010001000100010001000100010043
:1005B0000100010001000100010001000000010034
:1005C0000100010000000100010001000100010024
:1005D0000100010001000100010001000100010013
:1005E0000100010000000100000000000100000007
:1005F00000000000010001000100010001000100F5
:1006000001000100010001000100010001000100E2
:1006100001000100010001000100010001000100D2
:1006200001000100010001000100010001000100C2
:1006300001000100010001000100010001000100B2
:1006400001000100010001000100010001000100A2
:100650000100000001000100010000000100010094
:100660000100010001000100010001000100010082
:100670000100010001000100010000000100000074
:100680000000010000000000000001000100010066
:100690000100010001000100010001000100010052
:1006A0000100010001000100010001000100010042
:1006B0000100010001000100010001000100010032
:1006C0000100010001000100010001000100010022
:1006D0000100010001000100010001000100010012
:1006E0000100010001000100000001000100010003
:1006F00000000100010001000100010001000100F3
:1007000001000100010001000100010001000100E1
:1007100000000100000000000100000000000000D7
:1007200001000100010001000100010001000100C1
:1007300001000100010001000100010001000100B1
:1007400001000100010001000100010001000100A1
:100750000100010001000100010001000100010091
:100760000100010001000100010001000100010081
:100770000100010001000100010001000100000072
:100780000100010001000000010001000100010062
:100790000100010001000100010001000100010051
:1007A0000100010001000000010000000000010044
:1007B0000000000000000100010001000100010034
:1007C0000100010001000100010001000100010021
:1007D0000100010001000100010001000100010011
:1007E0000100010001000100010001000100010001
:1007F00001000100010001000100010001000100F1
:1008000001000100010001000100010001000100E0
:1008100001000100000001000100010000000100D2
:1008200001000100010001000100010001000100C0
:1008300001000100010001000100010000000100B1
:1008400000000000010000000000000001000100A5
:100850000100010001000100010001000100010090
:100860000100010001000100010001000100010080
:100870000100010001000100010001000100010070
:100880000100010001000100010001000100010060
:100890000100010001000100010001000100010050
:1008A0000100010001000100010000000100010041
:1008B0000100000001000100010001000100010031
:1008C0000100010001000100010001000100010020
:1008D0000100000001000000000001000000000015
:1008E0000000010001000100010001000100010001
:1008F00001000100010001000100010001000100F0
:1009000001000100010001000100010001000100DF
:1009100001000100010001000100010001000100CF
:1009200001000100010001000100010001000100BF
:1009300001000100010001000100010001000100AF
:1009400000000100010001000000010001000100A1
:10095000010001000100010001000100010001008F
:100960000100010001000100000001000000000082
:100970000100000000000000010001000100010072
:10098000010001000100010001000100010001005F
:10099000010001000100010001000100010001004F
:1009A000010001000100010001000100010001003F
:1009B000010001000100010001000100010001002F
:1009C000010001000100010001000100010001001F
:1009D0000100010001000000010001000100000011
:1009E00001000100010001000100010001000100FF
:1009F00001000100010001000100010001000000F0
:100A000001000000000001000000000000000100E3
:100A100001000100010001000100010001000100CE
:100A200001000100010001000100010001000100BE
:100A300001000100010001000100010001000100AE
:100A4000010001000100010001000100010001009E
:100A5000010001000100010001000100010001008E
:100A6000010001000100010001000100000001007F
:100A7000010001000000010001000100010001006F
:100A8000010001000100010001000100010001005E
:100A90000100010000000100000000000100000052
:100AA000000000000100010001000100010000043D
:100AB0007F3F1F643214643214783C1E1E140A05F2
:100AC0002223252628292A2C2D2F3032333536385B
:100AD0003A3B3D3E4042434547494A4C4E505153B4
:100AE0005557595A5C5E6062646668696B6D6F71D8
:100AF000737577797B7D7F81838587898A8C8E90DA
:100B0000929496989A9C9E9FA1A3A5A7A8AAACAEE2
:100B1000AFB1B3B4B6B8B9BBBCBEBFC1C2C3C5C622
:100B2000C7C9CACBCCCDCED0D1D2D2D3D4D5D6D7CB
:100B3000D7D8D9D9DADADBDBDBDCDCDCDCDCDDDD09
:100B4000DDDDDCDCDCDCDCDBDBDBDADAD9D9D8D7F9
:100B5000D7D6D5D4D3D2D2D1D0CECDCCCBCAC9C79B
:100B6000C6C5C3C2C1BFBEBCBBB9B8B6B4B3B1AFD2
:100B7000AEACAAA8A7A5A3A19F9E9C9A9896949272
:100B8000908E8C8A89878583817F7D7B7977757349
:100B9000716F6D6B6968666462605E5C5A59575527
:100BA0005351504E4C4A4947454342403E3D3B3AE3
:100BB0003836353332302F2D2C2A2928262523226A
:100BC000FFAA7F5540000000000000000000000167
:100BD00001010101010101010202020202020202FD
:100BE00003030303030303040404040405050505C8
:100BF0000506060606060707070708080808090984
:100C0000090A0A0A0B0B0B0C0C0C0D0D0D0E0E0E27
:100C10000F0F1010101111121213131414151516B2
:100C2000161717181819191A1A1B1C1C1D1D1E1F20
:100C30001F20212122232324252526272828292A6D
:100C40002B2C2C2D2E2F3031313233343536373892
:100C5000393A3B3C3D3E3F4041424344454647488C
:100C6000494B4C4D4E4F50525354555758595A5C5E
:100C70005D5E606163646567686A6B6C6E6F7172FC
:100C8000747677797A7C7D7F8182848687898B8D63
:100C90008E9092949597999B9D9FA1A2A4A6A8AA95
:100CA000ACAEB0B2B4B6B9BBBDBFC1C3C5C8CACC87
:100CB000CED0D3D5D7DADCDEE1E3E6E8EAEDEFF239
:100CC000F4F7F9FCFF040330000000140375006E14
:100CD0000064006500660069006E00650064000045
:100CE000000E0364007A0074006500630068000071
:100CF000000403090409023B00020100A0FA0904F0
:100D0000000001030101000921110100012240003E
:100D10000705810308000A0904010001030000001F
:100D200009211101000122C0000705820320000AE9
:100D30001201100100000008EDFE606001000102D8
:100D4000030105010902A10185020901A1000509AC
:100D500019012905150025019505750181029501E7
:100D6000750381010501093009311581257F95023F
:100D70007508810609381581257F9501750881065A
:100D8000050C0A38021581257F950175088106C07A
:100D9000C005010980A10185031601002603001A80
:100DA00081002A8300751095018100C0050C09019E
:100DB000A1018504160100269C021A01002A9C024A
:100DC000751095018100C005010906A10185050581
:100DD0000719E029E715002501950875018102052D
:100DE0000819012905950575019102950175039171
:100DF000010507190029EF1500250195F0750181FE
:100E000002C005010906A101050719E029E715003F
:100E10002501950875018102950175088101050874
:100E20001901290595057501910295017503910137
:100E30000507190029FF150026FF00950675088192
:100E400000C011241FBECFEFDAE0DEBFCDBF04B675
:100E500003FE27C08091810390918203A0918303B8
:100E6000B09184038730904BA740B04BD1F41092DF
:100E7000810310928203109283031092840314BEA4
:100E800084B7877F84BF0FB6F894A89580916000DF
:100E9000886180936000109260000FBEE0E0F8E38C
:100EA000099511E0A0E0B1E0E0E2F1E602C00590B2
:100EB0000D92AC35B107D9F723E0ACE5B1E001C044
:100EC0001D92A138B207E1F70E947F2A0C948E3060
:100ED0000C9400000C9471070C94720780E090E071
:100EE00008950895089581E0089581FF02C03E9A13
:100EF00001C03E984698089581E008950C947307C8
:100F00001F93CF93DF9300D000D01F92CDB7DEB7F1
:100F100049835A832091B70189819A81211112C096
:100F2000662349F00E942323182F682F89819A8114
:100F30000E94C82203C00E94F722182F69817A817B
:100F4000812F04C00E94232369817A810F900F9022
:100F50000F900F900F90DF91CF911F910C94160A74
:100F6000FC01408151816281738184810C948007EE
:100F70000E94DC0C8FE39CE90197F1F700C00000B0
:100F80000E94DC0C80E00E94870C80FF04C00E945D
:100F900053240C945F2608950E94B8070E94592498
:100FA000811102C00E94D3240C946A070C946C0730
:100FB0000C9475070C94D80708950E94EE1D0E94AA
:100FC000DC072FEF84E39CE0215080409040E1F764
:100FD00000C000000C945F260F931F93CF93DF9304
:100FE00000D0CDB7DEB78C010E94B0079A83898309
:100FF000B801CE0101960E94C813882309F40DC2DE
:10100000B80189819A810E947E07882309F405C26C
:10101000B80189819A810E94E617882309F4FDC1ED
:1010200029813A812A3CFCE53F0741F4F80182819D
:10103000882309F4F3C10E947310EFC12B3C8CE5A7
:10104000380708F01DC1233C9CE5390761F4F8011D
:101050008281882309F4E2C10E94A3238272E1F015
:101060000E949E12DAC1243CECE53E07C0F0263C0B
:101070009CE5390709F4D5C008F0E7C0243CFCE53D
:101080003F0709F0D6C0F8018281882309F4C6C160
:101090000E94A323827221F30E949112BEC12531C6
:1010A000FCE53F0708F086C022308CE5380708F4DD
:1010B00060C0F8018281882309F462C00E9459242B
:1010C000811102C00E94D3240E946C2490E090936E
:1010D000730380937203E981FA81E250FC45E431A5
:1010E000F10508F03FC0EA5AFF4F809172030C945B
:1010F0001130816035C0826033C0846031C080614E
:101100002FC080622DC080642BC0806829C084609D
:10111000886026C08E7F24C08D7F22C08B7F20C038
:101120008F7E1EC08F7D1CC08F7B1AC08F7718C02A
:101130008B7F877F15C082FB222720F991E029272A
:1011400020FB82F983FB222720F9922790FB83F969
:1011500007C087FB222720F991E0922790FB87F9AF
:1011600080937203809172030E9470240E94EE1D8E
:1011700054C121159CE5390739F021303C4561F017
:10118000C8010E947C074AC1F8018281882309F4C2
:1011900045C10E94DD0741C1F8018281882309F41D
:1011A0003DC180914F02982F909590FB80F98093DC
:1011B0004F0233C12631FCE53F0739F50E94A323D6
:1011C000282FF8018281409110015091110188234C
:1011D00079F02A7A91E009F490E090935C01911102
:1011E00002C069E201C065E3CA010E943A250AC053
:1011F00080915C01811102C069E201C065E3CA010E
:101200000E9445250E94EF2308C1223C3C4509F07D
:10121000B7CFF8018281882309F400C10E94AC1283
:10122000FCC0F8018281882309F4F8C00E943710BD
:10123000F4C0253C3C4509F0A3CFF8018281882306
:1012400009F4ECC00E942A10E8C0F8018281283C11
:10125000FCE53F0731F4882309F4E0C00E945510F3
:10126000DCC0293C3C4530F4882309F4D7C00E94F7
:101270004610D3C0882309F4D1C00E946410CDC0A9
:10128000213DECE53E0781F4F8018281882309F4D1
:10129000C5C00E94A50E8F3028F00E94A50E843193
:1012A00008F4FACE8FE00FC0223DFCE53F0708F0BE
:1012B0005CC02D3C8CE5380749F4F8018281882315
:1012C00009F4ACC081E00E94A112A7C02E3C9CE5AD
:1012D0003907C0F42B3CECE53E0741F4F80182816C
:1012E000882309F49BC00E94AD0E97C02C3C3C455E
:1012F00009F046CFF8018281882309F48FC00E944B
:10130000BE0E8BC0F80182812F3CFCE53F0771F4D3
:10131000882309F483C00E94A50E863028F00E941D
:10132000A50E883008F4B8CE86E0CDCF203D3C45F0
:1013300070F4882309F472C00E94A50E823028F050
:101340000E94A50E853008F4A7CE82E0BCCF88238A
:1013500009F464C00E94A50E893028F00E94A50EF1
:101360008E3008F499CE89E0AECF253DECE53E07FE
:1013700039F4F8018281882309F450C083E2A3CFB5
:10138000263DFCE53F0740F5F8018281233DFCE561
:101390003F0729F4882309F441C088E194CF243D14
:1013A0003C4568F48823D1F10E94A50E853128F0D0
:1013B0000E94A50E873108F46FCE85E184CF882383
:1013C00069F10E94A50E893128F00E94A50E823293
:1013D00008F462CE89E177CF2D3DECE53E0741F47C
:1013E000F80182818823D1F082E00E94202B15C071
:1013F0002F3DFCE53F0739F4F8018281882371F025
:101400000E94D3240AC02C3D3C4509F0B9CEF80116
:101410008281882319F080E0E8CF80E00F900F9060
:10142000DF91CF911F910F91089508959FE0799FCB
:10143000F00111249BE4899FE00DF11D1124E60FBA
:10144000F11DEE0FFF1FE25BFE4F85919491089511
:10145000880F991FFC01E255F54F859194910895ED
:10146000CF93DF930E94160A0E94E70BEC018115CF
:1014700020E59207F0F5811530E4930708F024C1C8
:10148000883E910500F5803E910508F09CC1883AA0
:10149000910570F4853A910508F09FC0813091055F
:1014A00009F491C108F442C1049708F08CC13EC10F
:1014B0008F3B910508F49CC0803C910508F436C12F
:1014C000805C9109F4C0811540E2940758F4C1157D
:1014D00081E0D80708F077C1C03FD10508F426C1E4
:1014E000D06571C1811520E3920708F0E4C09F70B8
:1014F000DEC0811535E5930708F044C0811544E549
:10150000940708F0F8C0C11582E5D80708F5C115A1
:1015100021E5D20708F0DBC08C2F837021E030E09A
:1015200002C0220F331F8A95E2F73C68CE0174E0B7
:10153000969587957A95E1F78370382BCF70C6958D
:10154000C69580E2C89FE0011124C22BD32B3BC17A
:101550002C2F26952695CE0183709927C115D3454A
:1015600008F0BAC040E2249F90011124C1E0D0E00D
:1015700002C0CC0FDD1F8A95E2F72C2B3D2BE90131
:10158000DC6821C1811549E59407A0F4C11588E5FF
:10159000D80708F0B5C0C11526E5D20708F0C6C0C7
:1015A0008C2F0E94640C8F71C82FD0E0DC2FCC27C9
:1015B000D06209C181153AE5930708F4A6C0905698
:1015C0008115904208F0B2C08D2F8F710E94640C7B
:1015D000DD27D0628F71D82BF6C0853A910509F4CA
:1015E000A8C0863A910509F0A7C0C2E8D0E4EBC0D4
:1015F000883A910509F4A3C0893A910509F4A2C07B
:101600008A3A910509F4A1C08B3A910509F4A0C06A
:101610008C3A910509F49FC08B3B910509F49EC05B
:101620008C3B910509F49DC08D3A910509F49CC04D
:10163000803B910509F49BC08E3A910509F49AC04C
:101640008F3A910509F499C0813B910509F498C03E
:10165000823B910509F497C0833B910509F496C03C
:10166000843B910509F495C0853B910509F494C02C
:10167000863B910509F493C0873B910509F492C01C
:10168000883B910509F491C0893B910509F490C00C
:101690008D3B910509F48FC08E3B910509F48EC0F6
:1016A0008A3B910509F48DC0C0E0D4E48CC00E944F
:1016B000280AEC0188C09927D3FF03C0EC01D86C3D
:1016C00082C0EC01D06C7FC0DF70D06A7CC0DC2FA0
:1016D000CC27C16FD06A77C040E2249F90011124CB
:1016E000C1E0D0E002C0CC0FDD1F8A95E2F7C22B2B
:1016F000D32BDA6868C0D82FCC27C46FD06A63C0F8
:10170000DC2FCC27C06FD06A5EC08F700E94640C43
:1017100094E0D695C7959A95E1F7CF70D0E0DC2F8D
:10172000CC27D06A8F70806EC82B4DC0C0E0D0E04F
:101730004AC0C1E8D0E447C0C3E8D0E444C0C2EE28
:10174000D4E441C0C9EED4E43EC0CAEED4E43BC008
:10175000C5EBD4E438C0C6EBD4E435C0C3EBD4E465
:1017600032C0C4EBD4E42FC0C7EBD4E42CC0CCEC23
:10177000D4E429C0CDECD4E426C0C3E8D5E423C02A
:10178000CAE8D5E420C0C2E9D5E41DC0C4E9D5E467
:101790001AC0C1E2D6E417C0C3E2D6E414C0C4E262
:1017A000D6E411C0C5E2D6E40EC0C6E2D6E40BC052
:1017B000C7E2D6E408C0CFE6D4E405C0C0E7D4E46D
:1017C00002C0CAE2D6E4CE01DF91CF9108958238FB
:1017D000910549F1B0F48133910509F458C048F4FA
:1017E0008932910509F44EC08A32910509F454C03A
:1017F00008958533910509F440C08933910599F026
:101800000895833E910529F138F4803E910591F0C9
:10181000823E9105A1F00895863E9105F9F0873E3C
:10182000910531F108952091720320FD3AC021FD08
:1018300038C008958091720380FD35C032C0809118
:10184000720382FF32C08091720384FD30C083EE48
:1018500039C08091720382FD28C0F5CF8091720358
:1018600083FF27C08091720384FD21C087EE2AC0C8
:101870008091720383FD1DC0F5CF8091720385FDB9
:101880001AC01BC08091720385FD17C014C08091DF
:10189000720386FD14C015C08091720386FD11C0CD
:1018A0000EC080EE0FC089E30DC082EE0BC080E059
:1018B00009C086EE07C089E205C085E303C08AE25D
:1018C00001C081E390E008959091720392FF0DC0F2
:1018D000282F2871283019F4877F846006C0282FAC
:1018E0002471243011F48B7F886093FF0DC0282F62
:1018F0002871283119F4877E846106C0282F24714D
:10190000243111F48B7E886194FD877E0895E82F41
:10191000F0E0EE0FFF1FE35AFE4F808191810895A2
:101920000895A2E3B1E041E050E025E02A0F8D9157
:10193000E82FE295EF70F0E031A18F70BA0102C09C
:10194000660F771F8A95E2F7CB01962F9095932328
:1019500091A392A1892B82A32A13E9CFA3E2B1E03C
:1019600041E050E02FE02A0F8D91E82FE295EF70D3
:10197000F0E031A18F70BA0102C0660F771F8A951F
:10198000E2F7CB01962F9095932391A392A1892BF7
:1019900082A32A13E9CFE7E6F1E0ADE5B1E01192C9
:1019A00011921D921D9271E0E137F707C1F785E0B2
:1019B0000E94730D0C94CC075F926F927F928F926E
:1019C0009F92AF92BF92CF92DF92EF92FF920F93CE
:1019D0001F93CF93DF9302E311E0A7E6B1E0612C00
:1019E000EE24E394F12C5D018D909C90119711965B
:1019F0001C921E92E80189918E01E82FE295EF700A
:101A0000F0E091A18F70A70101C0440F8A95EAF719
:101A1000892F842B81A382A1542E5094852182A3E7
:101A2000D0EADA95F1F783E2C82E81E0D82E80E083
:101A300090E0E60179906E01272D22952F7030E01D
:101A4000E90168A12D913C91119770E0D72DDF70CD
:101A500002C075956795DA95E2F760FD08C0B70199
:101A6000082E02C0660F771F0A94E2F702C060E0FA
:101A700070E0262B372B11963C932E9301968F30D6
:101A80009105B9F681A1D52DD823D1A382A1482BE8
:101A900042A3129681E0F5012081318182169306DE
:101AA00009F480E0682AF1E0A137BF0709F09BCF75
:101AB000262D45E06DE571E087E691E00E94740D0A
:101AC0000E94D607862DDF91CF911F910F91FF9035
:101AD000EF90DF90CF90BF90AF909F908F907F90CE
:101AE0006F905F9008950895FF920F931F93CF9387
:101AF000DF93F82E092F162FD72FC42F222349F05A
:101B000081E0809373010E94032690937201809379
:101B10007101809173018823D9F0809171019091B6
:101B200072010E940F26069798F0EF2DF02FA12F3B
:101B3000BD2F80E090E04C2F50E08417950734F4DF
:101B4000219131912D933D930196F7CF109273011E
:101B5000DF91CF911F910F91FF900895CF92DF9267
:101B6000EF92FF920F931F93CF93DF937B01282F68
:101B7000382FE82FF0E0F11006C0EB53F44F6491DA
:101B8000762F862F7BC00F2D10E046E0649FC001AA
:101B90001124CFEFD0E0BE010E94E92FAB016BEA28
:101BA0006403C001659F900D11248E0D911D8E0D53
:101BB000911D982F990F890FBE01601B710B6E9FAD
:101BC000D0016F9FB00D7E9FB00D11249B2F8F9D74
:101BD000B0011124672F77277E01E61AF70AEE9EDF
:101BE000B001EF9E700DFE9E700D11246E01C81A9B
:101BF000D108C09E7001C19EF00CD09EF00C112443
:101C00000F2D1127C01BD10BCE9F8001CF9F100D30
:101C1000DE9F100D1124812F4230510591F04CF4BC
:101C200041155105E1F041305105B9F4822F272FBC
:101C300016C04430510569F044F04630510579F042
:101C40000CC0822F2B2F912F0AC02B2F932F872F61
:101C500006C08B2F922F212F02C08B2F972FE22FA0
:101C6000F0E0EB53F44F7491E82FF0E0EB53F44FB6
:101C70006491E92FF0E0EB53F44F8491DF91CF9121
:101C80001F910F91FF90EF90DF90CF9008950895EE
:101C9000CF93DF93762FE901682F842F0E94AE0D3A
:101CA000798368838A83DF91CF910895433308F065
:101CB00042E30C94480E80918002282F269530E054
:101CC0002115310519F48170826005C02532310576
:101CD00024F0817088648093800280918302833332
:101CE00018F082E380938302089588E090E00C94DA
:101CF0004E30CF93DF9300D000D0CDB7DEB7AB012D
:101D0000BC0149835A836B837C830E945B0E4981AB
:101D10005A816B817C8188E090E00F900F900F904A
:101D20000F90DF91CF910C946C30E0E8F2E083E00B
:101D3000808311828FEF828382E3838314826081A8
:101D40007181828193810C94790E8091800280FF51
:101D500002C08695089580E00895809184028330C2
:101D600018F48F5F809384026091800270918102E9
:101D700080918202909183020C94790E809184026A
:101D8000882319F0815080938402609180027091C1
:101D9000810280918202909183020C94790E60916D
:101DA000040170E08091800280FF0AC08091780178
:101DB00023E0829FC00111248B579D4F0C94C513C3
:101DC0008091770190910301891780F7E82FF0E067
:101DD0009F01220F331FE20FF31FEB57FD4F1182BC
:101DE000108212828F5FF0CF9091800290FF16C018
:101DF0009091770120910301921770F4E92FF0E0A0
:101E0000DF01AA0FBB1FEA0FFB1FEB57FD4F8183BA
:101E1000608342839F5FF0CF0C94CF0E0895CF93E1
:101E2000DF9300D01F92CDB7DEB79091800290FF74
:101E30000AC09E012F5F3F4F0E94560E4B81698161
:101E40008A810E94F40E0F900F900F90DF91CF9136
:101E50000895CF93DF93EC01EC81F0E0E054F54F6F
:101E60004491E0E8F2E0628181810E940F0F8C8151
:101E70008F5F8C83DF91CF910895CF93DF93EC0137
:101E8000E0E8F2E0438162818C810E940F0F8C8137
:101E90008F5F8C83DF91CF9108950F931F93CF9322
:101EA000DF9300D01F92CDB7DEB78C018091740113
:101EB00081110AC09E012F5F3F4F42E36FEF0E94E6
:101EC000560E8A8180937401F8018481813051F02B
:101ED00028F0823061F4409174010AC0809174014D
:101EE00040E007C06091740140E080E003C040E042
:101EF00080E060E00E94F40EF801248130E0C90126
:101F0000019663E070E00E94FD2F84830F900F9094
:101F10000F90DF91CF911F910F910895AF92BF92D3
:101F2000CF92DF92EF92FF920F931F93CF93DF93A5
:101F300000D01F92CDB7DEB7182FF62E042FE22E59
:101F40009091800290FF6EC0E92FE695AE2FB0E031
:101F5000A95CBE4F8C91809380019E7F923061F48A
:101F60009E012F5F3F4F812F0E94560E4B8169814A
:101F70008A810E94F40E44C0823019F400918302D9
:101F80003FC0863019F4109181023AC08930D9F3EC
:101F90008931B1F5E9518E2F8170D82EE695F0E0A8
:101FA000E054F44FA590B490C12CBB246091020181
:101FB000C61620F5EC2DF0E0EA9DC001EB9D900DDA
:101FC000FA9D900D112470E00E94E92F812FD1100D
:101FD00002C0860F01C0861B90917701E90FF11DA9
:101FE0009F01220F331FE20FF31F9F012B573D4F1D
:101FF000402F6F2D0E94560EC394D8CF0E94CF0E53
:1020000010938102F092820200938302EE2051F03D
:10201000609180027091810280918202909183028E
:102020000E94790E0F900F900F90DF91CF911F912A
:102030000F91FF90EF90DF90CF90BF90AF900895F9
:10204000E0E8F2E09181282F4381628188E0890FE6
:102050000C948E0F81E00C942010E0E8F2E0918166
:10206000282F4381628188EF890F0C948E0F81E0C5
:102070000C942D10E0E8F2E0628128E0620F08F491
:102080006FEF282F438181810C948E0F81E00C9497
:102090003A10E0E8F2E0628128E0621B08F460E0B8
:1020A000282F438181810C948E0F81E00C9449107C
:1020B000E0E8F2E0438128E0420F08F44FEF282FD8
:1020C000628181810C948E0F81E00C945810E0E8BD
:1020D000F2E0438128E0421B08F440E0282F6281AF
:1020E00081810C948E0F81E00C94671020E00C9499
:1020F0008E0FFF920F931F93CF93DF93EC01F12C80
:102100000FEF10E060910201F616E8F420917701DC
:1021100030E02F0D311DC901880F991F280F391F7D
:102120002B573D4F70E0C8010E94FD2F962F8C81E8
:102130004091830260918202F99E800D11240E94D9
:10214000560EF394DFCF0E94CF0E9A818C8190FFC0
:1021500002C08F5F01C081508C83DF91CF911F91AE
:102160000F91FF900895BF92CF92DF92EF92FF926E
:102170000F931F93CF93DF93FC01828180FF02C0F6
:102180000FEF01C001E010E0809102011817E0F5A7
:10219000C12ED12C80917701E601C80FD11DCE014F
:1021A000880F991FC80FD91FCB57DD4F198218828E
:1021B0001A8234E0E32EF12CB12C809176018B0D44
:1021C00087FF03C090910201890F082E000C990B24
:1021D000C816D90691F4809183028E9DA0018F9D2F
:1021E000500D112455954795559547959E01609141
:1021F0008202809181020E94560EB00EF1E0EF1A29
:10220000F108D9F61F5FC0CF0E94CF0E80917601F2
:10221000013031F4811102C080910201815007C068
:1022200090E001966091020170E00E94FD2F809382
:102230007601DF91CF911F910F91FF90EF90DF908A
:10224000CF90BF900895CF93809177019091030133
:10225000891770F4E82FF0E09F01220F331FE20F7F
:10226000F31FEB57FD4F1182108212828F5FF0CF68
:10227000C0E060910201C617B8F5EC2FF0E070E005
:10228000CF010E94FD2F40917701480F8091750189
:10229000082E000C990B50E0E817F907C4F02091C4
:1022A0000101022E000C330B2E173F0784F09A0118
:1022B000220F331F240F351F2B573D4F40918302B0
:1022C00060918202809181020E94560E0BC0FA0139
:1022D000EE0FFF1F4E0F5F1FFA01EB57FD4F1182EC
:1022E00010821282CF5FC5CF0E94CF0E20910001D5
:1022F00080917501820F8093750190910101920F79
:102300009093010119165CF4082E000C990B409172
:10231000020150E041505109841795071CF02195A6
:1023200020930001CF9108950F931F93CF93DF93D4
:102330008C01FC0184819581019681709927958398
:102340008483C0E0D5E580910201C817F8F420919C
:10235000770130E02C0F311DC901880F991F280F1C
:10236000391F2B573D4F4C2F4695F801848195819D
:10237000840F911D817040918302609182028D9F34
:10238000802D11240E94560ECF5FDDCFDF91CF91BB
:102390001F910F910C94CF0E0F931F93CF93DF9348
:1023A000EC0100E010E080910201282F30E00217DC
:1023B000130724F5909177019801290F311DA90188
:1023C000440F551F240F351F2B573D4F869590E026
:1023D0004C81081719071CF4442331F002C0411145
:1023E00003C04091830201C040E06091820280916D
:1023F00081020E94560E0F5F1F4FD5CF0E94CF0E55
:102400002C8130E02F5F3F4F217033272C83DF91E9
:10241000CF911F910F910895E0E8F2E080818E7FC7
:10242000808360817181828193810E94790E1092F4
:1024300081012FEF80E792E0215080409040E1F74A
:1024400000C000000C94CF0EE0E8F2E080818E7FA7
:102450008083109281012FEF80E792E0215080402D
:102460009040E1F700C000000C94CF0E6091800214
:10247000669570E04BE050E085E091E00E943930D5
:10248000892B19F481E0809381010E9403269093A7
:102490007A018093790108959091800290FF35C070
:1024A0009170811102C0926006C0853210F098646C
:1024B00002C0880F982B90938002662351F06091A0
:1024C00080027091810280918202909183020E9429
:1024D000790E60918002669570E04BE050E085E0F7
:1024E00091E00E943930892B19F01092810102C0CD
:1024F0000E94361281E080937C01409183026091BA
:102500008202809181020C9476100895682F909138
:102510008002969581E0890F853208F081E00C9465
:102520004C1281E00C948612682F9091800296954F
:102530008FEF890F09F484E20C944C1281E00C9423
:10254000941261E00C944C12E0E8F2E0808181602A
:10255000808386950C94A1128091800280FD0C945A
:102560000C120C94A41260E00C944C1280917F0128
:10257000811133C080914F02816080934F020E948D
:102580005924811104C00E94D3240E94950E0E94F8
:10259000750E609380027093810280938202909303
:1025A00083026E7F61F40E94950E0E94750E609307
:1025B00080027093810280938202909383020E9432
:1025C0005B0E109281018091800280FF03C086958E
:1025D0000E94B31281E080937F010895E0E8F2E069
:1025E00080818160808386950C94B3121092810162
:1025F00008950F931F93CF93DF93809181018823D8
:1026000009F48CC080918001E0918002E695E81B7E
:10261000E0937B01823049F4F0E0E454F54FE4911B
:10262000CE2FD0E009E21FE049C0863049F4F0E047
:10263000E754F54FE491CE2FD0E00DE31FE03EC00C
:10264000893051F4E695F0E0EA54F54FE491CE2F4D
:10265000D0E009E710E132C08F3051F4E695F0E0A8
:10266000ED54F54FE491CE2FD0E003EB10E126C0FE
:10267000853149F4F0E0E055F54FE491CE2FD0E0FC
:1026800003E211E11BC0883181F0833239F4EEEAB4
:10269000FAE0C591D4910DE41FE010C0843251F4EA
:1026A000C4EFD1E00CEC11E109C0C8EED3E004E9BD
:1026B00011E104C0C0EDD7E007E41EE080917C0189
:1026C000882389F010927C010E9403269E012095A8
:1026D0003095820F931F90937A0180937901109225
:1026E0007E0110927D018091790190917A010E9482
:1026F0000F268C179D0790F0E0917901F0917A01F7
:10270000CE0FDF1FD0937A01C093790189E791E062
:10271000F801DF91CF911F910F910994DF91CF9133
:102720001F910F91089521B3342F3095232331B396
:10273000432B3FB7F894FC01680F791FE617F707A2
:1027400089F0819198E041BB000000C087FF21BB68
:10275000880F000000C000C000C021BB00C09A95D7
:1027600091F7ECCF3FBF089520B3242B20BB9B01F2
:10277000220F331F620F731F0E94931387EC90E0A8
:102780000197F1F700C00000089541E00C94B413E4
:102790004F925F926F927F928F929F92AF92BF9271
:1027A000CF92DF92EF92FF920F931F93CF93DF931D
:1027B0007C01DC01ED91FC91CF01815095458F3F6B
:1027C000910510F4B5E5FB27EB016A80662009F45A
:1027D000BFC2EF3FF10579F070F0EE3DFC4519F016
:1027E0001092820173C39091820181E089278093C6
:1027F0008201A0E06CC3A0918201AA2309F4EBC07E
:1028000010928201E03CF10540F4E038F10508F057
:1028100073C0E034F105D0F505C0EF3FF10509F0D4
:1028200008F4A0C021E030E040E050E060E070E05B
:1028300080E090E00E2F0E941730B09183012B2B87
:10284000B09184013B2BB09185014B2BB091860157
:102850005B2BB09187016B2BB09188017B2BB091E2
:1028600089018B2BB0918A019B2B2093830130939C
:102870008401409385015093860160938701709392
:1028800088018093890190938A01A1C021E030E002
:1028900040E050E060E070E080E090E08F010054A4
:1028A00011090E941730B0918B012B2BB0918C0134
:1028B0003B2BB0918D014B2BB0918E015B2BB091D6
:1028C0008F016B2BB09190017B2BB09191018B2BE1
:1028D000B09192019B2B20938B0130938C014093FC
:1028E0008D0150938E0160938F01709390018093BE
:1028F0009101909392016BC021E030E040E050E004
:1029000060E070E080E090E08F01005811090E94C3
:102910001730B09193012B2BB09194013B2BB091C8
:1029200095014B2BB09196015B2BB09197016B2BCE
:10293000B09198017B2BB09199018B2BB0919A01AA
:102940009B2B2093930130939401409395015093D6
:1029500096016093970170939801809399019093E9
:102960009A0135C021E030E040E050E060E070E0E6
:1029700080E090E08F01005C11090E941730B09157
:102980009B012B2BB0919C013B2BB0919D014B2BBC
:10299000B0919E015B2BB0919F016B2BB091A00178
:1029A0007B2BB091A1018B2BB091A2019B2B20938B
:1029B0009B0130939C0140939D0150939E01609335
:1029C0009F017093A0018093A1019093A201E70160
:1029D000F983E8837CC2E034F105D0F4A090830150
:1029E000B0908401E0908501F090860110918701FC
:1029F000D0918801C0918901B0918A0121E030E035
:102A000040E050E060E070E080E090E00E2F5DC0BC
:102A1000E038F105E8F4A0908B01B0908C01E090D3
:102A20008D01F0908E0110918F01D0919001C09195
:102A30009101B091920121E030E040E050E060E08F
:102A400070E080E090E06F0100E4C01AD1083CC063
:102A5000E03CF105E8F4A0909301B0909401E0907F
:102A60009501F090960110919701D0919801C09135
:102A70009901B0919A0121E030E040E050E060E03F
:102A800070E080E090E06F0100E8C01AD1081CC03F
:102A9000A0909B01B0909C01E0909D01F0909E0160
:102AA00010919F01D091A001C091A101B091A2010C
:102AB00021E030E040E050E060E070E080E090E055
:102AC0006F0100ECC01AD1080C2D0E9417304A2C5F
:102AD00042225B2C53227E2C74228F2C8522912E35
:102AE0009622D723C823B92321E030E040E050E00C
:102AF00060E070E080E090E0E034F10510F40E2F2B
:102B00000FC08F01E038F10518F40054110908C016
:102B1000E03CF10518F40058110902C0005C1109ED
:102B20000E94173059016A017B018C019201472DE7
:102B3000582D692D7D2F8C2F9B2F0E94303009F04E
:102B4000C5C1E03CF10548F4E038F10508F084C067
:102B5000E034F10508F042C005C0EF3FF10509F08F
:102B600008F4B8C021E030E040E050E060E070E000
:102B700080E090E00E2F0E94173020953095409510
:102B800050956095709580959095E09183012E23E6
:102B9000E09184013E23E09185014E23E09186017E
:102BA0005E23E09187016E23E09188017E23E0910E
:102BB00089018E23E0918A019E2320938301309323
:102BC000840140938501509386016093870170933F
:102BD00088018093890190938A0179C18F01005403
:102BE000110921E030E040E050E060E070E080E07A
:102BF00090E00E9417302095309540955095609553
:102C0000709580959095E0918B012E23E0918C0139
:102C10003E23E0918D014E23E0918E015E23E091F1
:102C20008F016E23E09190017E23E09191018E232C
:102C3000E09192019E2320938B0130938C0140936D
:102C40008D0150938E0160938F017093900180935A
:102C50009101909392013BC18F010058110921E02D
:102C600030E040E050E060E070E080E090E00E9402
:102C700017302095309540955095609570958095CA
:102C80009095E09193012E23E09194013E23E091F1
:102C900095014E23E09196015E23E09197016E230A
:102CA000E09198017E23E09199018E23E0919A01B1
:102CB0009E23209393013093940140939501509368
:102CC0009601609397017093980180939901909376
:102CD0009A01FDC08F01005C110921E030E040E065
:102CE00050E060E070E080E090E00E9417302095B6
:102CF0003095409550956095709580959095E091B0
:102D00009B012E23E0919C013E23E0919D014E23E7
:102D1000E0919E015E23E0919F016E23E091A0016E
:102D20007E23E091A1018E23E091A2019E232093B6
:102D30009B0130939C0140939D0150939E016093B1
:102D40009F017093A0018093A1019093A201BFC045
:102D5000EF3FF10511F008F0B6C0E034F105D0F412
:102D6000609083017090840180908501909086012D
:102D7000D0918701C0918801B091890150908A015A
:102D800021E030E040E050E060E070E080E090E082
:102D90000E2F59C0E038F105E0F460908B0170907F
:102DA0008C0180908D0190908E01D0918F01C09107
:102DB0009001B09191015090920121E030E040E00B
:102DC00050E060E070E080E090E08F010054110975
:102DD0003AC0E03CF105E0F46090930170909401FA
:102DE0008090950190909601D0919701C0919801A3
:102DF000B091990150909A0121E030E040E050E01C
:102E000060E070E080E090E08F01005811091BC085
:102E100060909B0170909C0180909D0190909E011C
:102E2000D0919F01C091A001B091A1015090A20149
:102E300021E030E040E050E060E070E080E090E0D1
:102E40008F01005C11090E941730622273228422D4
:102E50009522D623C723B8235922E034F10550F434
:102E600021E030E040E050E060E070E080E090E0A1
:102E70000E2F17C08F01E038F10518F40054110926
:102E800008C0E03CF10518F40058110902C0005CCC
:102E9000110921E030E040E050E060E070E080E0C7
:102EA00090E00E94173059016A017B018C01A1E07A
:102EB0009301A4016D2F7C2F8B2F952D0E94303014
:102EC00019F4A0E001C0A1E0A17001C0A62D8A2FD5
:102ED000DF91CF911F910F91FF90EF90DF90CF90F6
:102EE000BF90AF909F908F907F906F905F904F902A
:102EF00008950F931F93CF93DF93C62FD42F022FE4
:102F0000FC0182818823C9F06093A5010E940326F9
:102F10009093A4018093A30180E28C0F883008F085
:102F200050C0C77081E001C0880FCA95EAF7DF91F1
:102F3000CF911F910F910C94371B1091A50116137F
:102F400030C08091A3019091A4010E940F26883C7B
:102F5000910538F5C0E2CD0F1D17B9F080E2810F61
:102F6000883040F4177081E001C0880F1A95EAF7A5
:102F70000E943E1BC83048F481E09D2F977001C02D
:102F8000880F9A95EAF70E94371B802F0E94241B16
:102F9000C830B8F4D77081E001C0880FDA95EAF73D
:102FA0000AC080E28C0F883060F4C77081E001C0F5
:102FB000880FCA95EAF7DF91CF911F910F910C947A
:102FC0003E1BDF91CF911F910F9108959C01CB0182
:102FD000213F4CE53407F9F078F4283DFCE53F0744
:102FE000B9F0293D4CE5340711F1273D3C4531F559
:102FF00026E241EE61EE1EC0233FFCE53F0799F05B
:1030000070F0243F3C45D1F427E245EE66EE12C055
:1030100027E245EE0EC026E241EE60EE0BC027E24D
:1030200045EE64EE07C026E241EE62EE03C028E200
:1030300041E065EE0E94791780E00895FC018281ED
:10304000882319F01092A501089581E008959093C6
:10305000AB018093AA010895E091AA01F091AB0120
:10306000309721F00190F081E02D099480E00895DF
:10307000E091AA01F091AB01309799F020912201E3
:10308000222359F02091720327FF07C0DC012C9105
:1030900011962C93119725E02C930280F381E02D5B
:1030A00009940895E091AA01F091AB01309739F0AD
:1030B00022E0DC012C930480F581E02D0994089531
:1030C0002091A8013091A9018217930771F0909384
:1030D000A9018093A801E091AA01F091AB0130977A
:1030E00021F00680F781E02D099408952091A60132
:1030F0003091A7018217930771F09093A7018093F5
:10310000A601E091AA01F091AB01309721F0008473
:10311000F185E02D0994089585B7806885BF85B74E
:10312000806885BF0895089508950C9494180895B3
:103130000C9497180E948C180E9493180C94951860
:1031400081E008950E94FA250E94910C0E94832636
:103150000E94B6120C9498184F925F927F928F92B1
:103160009F92AF92BF92CF92DF92EF92FF920F9316
:103170001F93CF93DF93CDB7DEB72A970FB6F8949E
:10318000DEBF0FBECDBF0E94DC0C0E94A0188111D3
:1031900011C08FEF89838A831B820E94032681607E
:1031A000782F9D838C8349815A816B818D810E9408
:1031B0006A1957C09DEAC92E91E0D92E00E010E0AF
:1031C000AA24A394B12C702E802F0E94870C4C014E
:1031D000F601419051906F0148265926411451043F
:1031E00031F40F5F1F4F0530110569F7D2CF809181
:1031F0004F0281FD0E94900C20E030E07501022E0C
:1032000002C0EE0CFF1C0A94E2F7C701842195214D
:10321000892B09F12E837F828E209F2091E08928BF
:1032200009F490E098870E9403268160782F9A879E
:1032300089874E815F8168858A850E946A19000F9F
:10324000111FF801E355FE4F80819181E826F92690
:10325000F182E08206C02F5F3F4F2F30310571F6BB
:10326000C0CF0E9416281091AC010E942C1818178C
:10327000D9F00E942C188093AC012A960FB6F894CE
:10328000DEBF0FBECDBFDF91CF911F910F91FF9099
:10329000EF90DF90CF90BF90AF909F908F907F90F6
:1032A0005F904F900C94DA072A960FB6F894DEBF21
:1032B0000FBECDBFDF91CF911F910F91FF90EF9087
:1032C000DF90CF90BF90AF909F908F907F905F9056
:1032D0004F900895CF93DF93CDB7DEB72B970FB6FE
:1032E000F894DEBF0FBECDBF4F83588769877A87BA
:1032F0008B87DE01119686E0FD0111928A95E9F730
:1033000085E0FE01379601900D928A95E1F749819B
:103310005A816B817C818D819E810E9498202B96A1
:103320000FB6F894DEBF0FBECDBFDF91CF910895E9
:10333000FC01808191810E9464230895882309F40F
:103340001AC18238C1F40E942C1881FD14C169E3AE
:1033500080911001909111010E943A250E94EF2363
:103360002FEF81EE94E0215080409040E1F700C0C3
:10337000000069E319C08338F9F40E942C1880FD1D
:10338000FAC063E580911001909111010E943A25E5
:103390000E94EF232FEF81EE94E021508040904077
:1033A000E1F700C0000063E58091100190911101E8
:1033B0000E9445250C94EF238438C1F40E942C18F8
:1033C00082FDD9C067E480911001909111010E94A3
:1033D0003A250E94EF232FEF81EE94E021508040A8
:1033E0009040E1F700C0000067E4DECF9CEF980F4B
:1033F000913A40F4682F80911001909111010E9440
:103400003A25D8CF90E2980F983050F4877091E029
:1034100001C0990F8A95EAF7892F0E94A623CACF87
:103420009BE5980F933070F4853A29F0863A31F095
:1034300083E890E005C081E890E002C082E890E077
:103440000C94601898E5980F973108F08EC0883A70
:1034500009F445C0893A09F445C08A3A09F445C0DF
:103460008B3A09F445C08C3A09F445C08B3B09F40A
:1034700045C08C3B09F445C08D3A09F445C0803BFA
:1034800009F445C08E3A09F445C08F3A09F445C0A5
:10349000813B09F445C0823B09F445C0833B09F4F4
:1034A00045C0843B09F445C0853B09F445C0863BD3
:1034B00009F445C0873B09F445C0883B09F445C081
:1034C000893B09F445C08D3B09F445C08E3B09F4A6
:1034D00045C08A3B09F445C080E090E044C082EEDC
:1034E00090E041C089EE90E03EC08AEE90E03BC0A3
:1034F00085EB90E038C086EB90E035C083EB90E040
:1035000032C084EB90E02FC087EB90E02CC08CECB5
:1035100090E029C08DEC90E026C083E891E023C0C4
:103520008AE891E020C082E991E01DC084E991E041
:103530001AC081E292E017C083E292E014C084E2F4
:1035400092E011C085E292E00EC086E292E00BC0EC
:1035500087E292E008C08FE690E005C080E790E047
:1035600002C08AE292E00C947618803F20F00E941C
:103570001E270C940B280895882309F464C0823810
:1035800079F40E942C1881FF5EC069E380911001DC
:10359000909111010E943A250E94EF2369E310C027
:1035A0008338B1F40E942C1880FF4DC063E58091F0
:1035B0001001909111010E943A250E94EF2363E5CA
:1035C00080911001909111010E9445250C94EF23E8
:1035D000843879F40E942C1882FF35C067E480910A
:1035E0001001909111010E943A250E94EF2367E497
:1035F000E7CF9CEF980F913A10F4682FE1CF90E25B
:10360000980F983050F4877091E001C0990F8A9517
:10361000EAF7892F0E94AC23D9CF9BE5980F93300E
:1036200020F480E090E00C94601898E5980F9731B2
:1036300020F480E090E00C947618803F20F00E9407
:1036400086270C940B280895CF93C82F0E949E19AB
:10365000C93349F42FEF83EC99E02150804090402A
:10366000E1F700C000008C2FCF910C94BC1A882386
:1036700021F00E94A6230C94EF230895882321F0C3
:103680000E94AC230C94EF2308954F925F926F92A7
:103690007F92BF92CF92DF92EF92FF920F931F9390
:1036A000CF93DF937C01062FC72FFC011581129564
:1036B0001F70D281D1110E94C3230E949C238823B2
:1036C00079F0DD2369F080E2800F883048F082E0F5
:1036D0000E943A240E949C2391E0B82EB92601C092
:1036E000B12CCC2EC2948FE0C822D12CF601E65921
:1036F000FF4F0C9411308C2F807FCF70882311F0F6
:10370000C295C07FDD2399F0CC2309F4C3C180E2C8
:10371000800F883010F0011104C08C2F0E94A62366
:1037200003C08C2F0E94B6230E94EF23B3C1802FC9
:103730000E94BC1ACC2309F4D2C180E2800F8830E9
:1037400010F0011104C08C2F0E94AC2303C08C2FF9
:103750000E94BC230E94EF23C2C18C2F807FCF70B8
:10376000803211F0C295C07F002319F00130C9F0FA
:1037700022C0DD2371F0112341F0113031F40E9499
:10378000D6238C2B0E94DC23AAC10E94D6238C2B2B
:103790003AC1112319F0113009F4A1C10E94E523A7
:1037A00018C0DD2321F0163008F099C10EC0153085
:1037B00008F095C10EC0DD2351F0112331F0F7015F
:1037C000858180FF67C18F7085838C2F1CC111118B
:1037D00072C18C2F1EC18C2F86958695837090E0C8
:1037E000009719F0019761F07AC1DD2321F0802F55
:1037F0009C2F937002C080E090E00E9460187FC10F
:10380000DD2321F0802F9C2F937002C080E090E098
:103810000E94761874C1DD23F9F0053F51F0063F90
:1038200071F0043FA9F480916C0390916D03816065
:103830000BC080916C0390916D03826005C08091F4
:103840006C0390916D03846090936D0380936C037F
:10385000802F0E941E271EC0053F51F0063F71F0C9
:10386000043FA9F480916C0390916D038E7F0BC08F
:1038700080916C0390916D038D7F05C080916C03E6
:1038800090916D038B7F90936D0380936C03802FD9
:103890000E9486270E940B2832C18C2F837009F06A
:1038A0004BC0D11128C1202F229526952770220FB9
:1038B000220F602F6F70862F90E0A0E0B0E02C0107
:1038C0003D01022E04C0440C551C661C771C0A9452
:1038D000D2F704FF10C08FE090E0A0E0B0E004C099
:1038E000880F991FAA1FBB1F2A95D2F78095909524
:1038F000A095B09503C080E090E0DC01C695C69528
:10390000C370D0E0BC01CD016429752986299729AF
:10391000C230D10559F0C330D10559F0219719F0C3
:103920000E94DD21E8C00E94CB21E5C00E94EF216A
:10393000E2C00E94C921DFC0DD2319F08C2F817005
:1039400001C08695882309F4D6C0202F229526959C
:103950002770220F220F602F6F70862F90E0A0E05B
:10396000B0E02C013D01022E04C0440C551C661C25
:10397000771C0A94D2F704FF10C08FE090E0A0E01B
:10398000B0E004C0880F991FAA1FBB1F2A95D2F769
:1039900080959095A095B09503C080E090E0DC0103
:1039A000C695C695C370D0E0BC01CD0164297529C8
:1039B00086299729C230D10559F0C330D10559F075
:1039C000219719F00E94A32296C00E94912293C0D1
:1039D0000E94B52290C00E9404228DC0802F90E0EA
:1039E000FC01E05EF109E531F10508F04FC0E65851
:1039F000FF4F0C9411300F708C2F8F71DD2331F03D
:103A00000E942A22802F0E94371B69C00E944B22ED
:103A1000802F0E943E1B63C0DD2341F0153008F06B
:103A20005EC08C2F8F710E94702259C0163008F032
:103A300056C0F7CFDD2339F08C2F8F710E942A22D8
:103A40004EC0DD23C9F38C2F8F710E944B2247C0DB
:103A5000DD2329F08C2F8F710E94152240C00E9417
:103A600010223DC0DD2349F0CF718C2F0E942A2205
:103A700063E08C2F0E94252432C081E00E943A240A
:103A8000123068F182E00E943A2429C0DD2331F02F
:103A9000112391F2802F0E949E1921C0112399F2C7
:103AA000093349F4FFEF23EC89E0F15020408040D6
:103AB000E1F700C00000802F0E94BC1A10C04C2FFC
:103AC0004F70602FC7010E946E070E943C2117C0F3
:103AD0004C2F4F70602FC7010E94150A10C098E04C
:103AE000C916D10441F05CF0FAE0CF1AD10822E007
:103AF000C216D10420F40E942C180E94DA07BB20C1
:103B0000F1F00E94982380FD1AC0F70112820E94F2
:103B100092230E942A22C7010E94AD1D0E94922377
:103B2000DF91CF911F910F91FF90EF90DF90CF9099
:103B3000BF907F906F905F904F900C944B22DF91DD
:103B4000CF911F910F91FF90EF90DF90CF90BF909A
:103B50007F906F905F904F9008950F931F93CF9336
:103B6000DF93EC01888199812B813C81232BB9F073
:103B70009F3F11F48F3F99F0CE010E94EC078823FC
:103B800071F0688179818A810E946F238C010E9483
:103B9000C7220E94C821B801CE010E94451BDF91B7
:103BA000CF911F910F9108950E94C3230E94D323A8
:103BB0000E94EF230E94B1280E940B2880E090E031
:103BC0000E94601880E090E00C94761880911001BB
:103BD000909111010E9450250C94D41D0E94B32392
:103BE0000C94E61DE92FE295EF70F0E03297EE308D
:103BF000F105B0F4E157FF4F0C941130803F91F084
:103C000018F4803E68F40EC0843F51F40BC0803E2F
:103C100048F0813F29F406C093FB882780F9089576
:103C200080E0089581E008950E9464230E94F21DBF
:103C30000895CF93DF9300D000D01F92CDB7DEB7A9
:103C40000F900F900F900F900F90DF91CF910895EC
:103C5000CF93DF9300D000D000D0CDB7DEB726964B
:103C60000FB6F894DEBF0FBECDBFDF91CF910895A0
:103C70001F93CF93DF93C091B80116E08091B901F3
:103C8000C81799F0D0E01C9FF0011D9FF00D112482
:103C9000E654FE4F40815181628173818481958118
:103CA0000E94281E2196C770E9CFDF91CF911F9106
:103CB00008954091EA015091EB016091EC017091FF
:103CC000ED018091EE019091EF010C94281E8091FE
:103CD000EF0182958F7009F054C08091EC01882328
:103CE00009F44FC08091B801A091B9016091EA0137
:103CF0007091EB014091ED015091EE01B6E08A1711
:103D000009F43FC090E041155105C1F17F3F11F426
:103D10006F3FA1F1B89FF001B99FF00D1124E65457
:103D2000FE4F218172132AC02081621327C0228195
:103D3000211124C0238134812417350710F4215028
:103D40003109241B350B283C3105C0F42091EF01CB
:103D50002F7020612093EF0126E0289FF001299F1A
:103D6000F00D1124E154FE4F80818F7080618083BB
:103D70008AEE91E00E94AD1D0C94381E019687706A
:103D8000BECF0895CF92DF92EF92FF920F931F93D1
:103D9000CF93DF93CDB7DEB762970FB6F894DEBF4F
:103DA0000FBECDBF8C0185E0F801DE011D960190AC
:103DB0000D928A95E1F7D8014C9111965C9111977B
:103DC00012966C9112971396CD90DC9014973091C7
:103DD000EA017091EB018091ED019091EE01009765
:103DE00009F46BC17F3F19F43F3F09F466C1E090CD
:103DF000EC01EE2009F4C0C02091EF01C816D906ED
:103E000028F0F601E81BF90BCF0104C080959095CE
:103E10008C0D9D1DFF24F394883C910578F0F12CC6
:103E2000207F09F0C6C07C2DD98AC88A89890E9462
:103E3000191E8AEE91E00E94AD1DB1C0822F807FD5
:103E400009F046C0751314C0341312C0611110C0BC
:103E50002F7020612093EF010E94591E8AEE91E09D
:103E60000E94AD1D8091EF01D80115968C932EC054
:103E7000CD2819F15F3F11F44F3FF9F0F62E611193
:103E80001CC08091B8012091B90136E0821709F475
:103E90005AC090E0389FF001399FF00D1124E6548C
:103EA000FE4F7181571306C07081471303C07281A2
:103EB000711103C001968770E9CFF62E662309F4CD
:103EC00027C18091EF0181608093EF01F12C20C127
:103ED000751308C0341306C0611104C08091EF014E
:103EE000D801C3C04D875E878D859E856A8B0E94F1
:103EF000141E6A898823E1F16623D1F12091EF0134
:103F0000822F82958F7090E0029774F08091EA0181
:103F10009091EB0198878F831986DB86CA862C8760
:103F2000CE0107960E94AD1D86E0F801AAEEB1E031
:103F300001900D928A95E1F70E94671E0E94591E1A
:103F4000FF24F394E5C04D875E878D859E850E9492
:103F50006423292F22952F7030E0223031050CF098
:103F6000CBC09F7009F0C5C0805E883008F4D0C017
:103F7000C8010E94AD1DE4CFC816D90608F453C08D
:103F8000F601E81BF90BCF01883C910508F450C0FD
:103F9000F12C7C2DD98AC88A89890E94191EEAEEE3
:103FA000F1E086E0DF011D928A95E9F70E94591E33
:103FB000AFC0751314C0341312C0611110C08091CA
:103FC000EF01F8018583C8010E94AD1D86E0EAEE8D
:103FD000F1E0DF011D928A95E9F7FE2C99C04D872B
:103FE0005E878D859E856A8B0E94141E6A89882350
:103FF00009F4BECF662309F4BBCF2091EF01822FD5
:1040000082958F7090E002970CF48ECF8091EA0138
:104010009091EB019A8389831B82DD82CC822E836F
:10402000CE0101967FCF809590958C0D9D1DACCFD4
:10403000F62E662309F49CCF75132EC034132CC0C2
:104040002091EF0120FD1FC0822F82958F70D9F043
:10405000D80115962C9315978F3049F08F5F982FC4
:104060009295907F822F8F70892B15968C93C80123
:104070000E94AD1D86E0F801AAEEB1E001900D921C
:104080008A95E1F793CF86E0F801AAEEB1E00190BE
:104090000D928A95E1F73CC04D875E878D859E85A0
:1040A0000E94141E811140CF8091EF0181608093A6
:1040B000EF01C8010E94AD1D2BC0662309F458CF43
:1040C0004D875E878D859E850E94141EF82E88235D
:1040D00009F44ECF86E0F801AAEEB1E001900D920E
:1040E0008A95E1F78AEE91E00E9498190E94671E76
:1040F0005DCF811139CF0CC0243031050CF038CFA1
:104100009F7009F431CFF8019581907F09F02CCF91
:104110008F2D62960FB6F894DEBF0FBECDBFDF9134
:10412000CF911F910F91FF90EF90DF90CF90089566
:104130001F93CF93DF93CDB7DEB72C970FB6F894CC
:10414000DEBF0FBECDBF4F83588769877A878B87C5
:104150009C87CE0107960E94C21E882369F08F813A
:1041600098852A853B85232BF1F19F3F09F063C099
:104170008F3F09F060C037C086E0FE013796DE0150
:10418000119601900D928A95E1F76F817885EA8505
:10419000FB85309741F17F3F11F46F3F21F1209172
:1041A000B90130E0C9010196877099274091B801A3
:1041B00050E08417950709F447C069837A83FD832B
:1041C000EC8396E0929FD001939FB00D1124A654EA
:1041D000BE4FFE01319601900D929A95E1F78093C2
:1041E000B9010E94381E16E08091B8019091B90182
:1041F0008917C1F1189FC001112486549E4F0E9457
:10420000C21E882379F1E091B8011E9FF0011124AC
:10421000E654FE4F40815181628173818481958192
:104220000E94281E8091B80190E00196877099271E
:104230008093B801D9CF4F81588569857A858B8560
:104240009C850E94281ECFCF0E94EE1D1092B901BE
:104250001092B801EAEEF1E086E0DF011D928A9546
:10426000E9F7C1CF2C960FB6F894DEBF0FBECDBFD5
:10427000DF91CF911F910895EF92FF920F931F93BB
:10428000CF93DF938C01892B09F46CC0F12CEE24C1
:10429000E394E8012196F8018491843740F4843056
:1042A00008F051C0813081F0823019F15BC0853750
:1042B00009F444C0A8F19CE7980F903708F052C069
:1042C0008F770E94BC1A41C00E5F1F4FFE01C49140
:1042D00080E28C0F883048F4C7708E2D01C0880FA3
:1042E000CA95EAF70E94C62314C08C2F0E949E191B
:1042F0002DC00E5F1F4FFE01C49180E28C0F8830ED
:1043000058F4C7708E2D01C0880FCA95EAF70E9435
:10431000CC230E94EF231AC08C2F0E94BC1A16C017
:104320000E5F1F4FFE01C491CC2381F08FE99FE007
:104330000197F1F700C00000C150F6CF0E5F1F4F8C
:10434000FE01F49003C00E949E198E018F2D8823D8
:1043500009F49FCFEFE9FFE03197F1F700C00000CB
:104360008150F5CFDF91CF911F910F91FF90EF908A
:10437000089508950C94B9210E94BA2160932602F1
:104380007093270280932802909329020C94D41DE5
:1043900008950C94BC210F931F9300912602109155
:1043A00027022091280230912902602B712B822B49
:1043B000932B1F910F910C94BC210F931F9300918D
:1043C00026021091270220912802309129026023B1
:1043D0007123822393231F910F910C94BC210F937F
:1043E0001F930091260210912702209128023091FC
:1043F000290260277127822793271F910F910C9420
:10440000BC2108950C9401220E9402226093220292
:104410007093230280932402909325020C94D41D60
:1044200060E070E0CB010C9404220F931F9341E0F5
:1044300050E060E070E08A019B0104C0000F111F92
:10444000221F331F8A95D2F7C901B8011F910F911E
:104450000C9404220F931F9341E050E060E070E061
:1044600004C0440F551F661F771F8A95D2F78091AD
:10447000220290912302A0912402B09125028A0188
:104480009B01082B192B2A2B3B2BC901B8011F912B
:104490000F910C9404220F931F9341E050E060E0D1
:1044A00070E004C0440F551F661F771F8A95D2F72E
:1044B00040955095609570958091220290912302CD
:1044C000A0912402B09125028A019B01082319239F
:1044D0002A233B23C901B8011F910F910C94042298
:1044E0000F931F9341E050E060E070E004C0440F80
:1044F000551F661F771F8A95D2F7809122029091EF
:104500002302A0912402B09125028A019B01082771
:1045100019272A273B27C901B8011F910F910C9435
:1045200004220F931F9300912202109123022091E5
:10453000240230912502602B712B822B932B1F912B
:104540000F910C9404220F931F930091220210915B
:1045500023022091240230912502602371238223BB
:1045600093231F910F910C9404220F931F9300919A
:10457000220210912302209124023091250260270B
:104580007127822793271F910F910C94042208957D
:104590002FE0929F800D1124A82FA695A695A69591
:1045A000877051E001C0550F8A95EAF785E0A89F12
:1045B000D001112420E030E070E0F901EA0FFB1F88
:1045C000E051FE4F4081CB01022E02C096958795A7
:1045D0000A94E2F78170992781958427852384279F
:1045E00080832F5F3F4F2530310539F708952FE045
:1045F000929F800D1124682F669566956695982F79
:10460000977085E0689FB001112440E050E080E0A1
:10461000FA01E60FF71FE051FE4F208130E0092E2E
:1046200002C0369527950A94E2F721703327042EAD
:1046300001C0220F0A94EAF7822B4F5F5F4F45308B
:10464000510531F70895BF92CF92DF92EF92FF921A
:104650000F931F93CF93DF938C01C0902602D090CD
:104660002702E0902802F090290280912202909186
:104670002302A0912402B0912502C82AD92AEA2A4D
:10468000FB2ACFE1D0E0D701C6010C2E04C0B695BD
:10469000A795979587950A94D2F780FF07C0BC2EFF
:1046A000B8018C2F0E94300A019719F4219758F70E
:1046B000B12C8B2DDF91CF911F910F91FF90EF9037
:1046C000DF90CF90BF900895CF93DF93EC010E94CD
:1046D0002323BE010E94300ADF91CF9108951F93DA
:1046E000CF93DF93EB019091B701992321F0CB0198
:1046F0000E94642313C0882349F0CB010E94232326
:10470000182F682FCE010E94C82204C0CB010E943E
:10471000F722182FBE01812F0E94300ADF91CF911E
:104720001F91089580912A02859585958595089514
:1047300080912A028770089590912A02977081E0F3
:1047400009F480E0089580914E02089590914E0200
:10475000892B80934E020895809590914E02892373
:1047600080934E02089510924E02089590914D024A
:10477000892B80934D020895809590914D02892355
:1047800080934D02089510924D02089590914C022D
:10479000892B80934C020895809590914C02892337
:1047A00080934C02089510924C02089580912B0240
:1047B000089508950C94D92390912B02981721F015
:1047C00080932B020C94DA23089580912B02882386
:1047D00029F010922B0280E00C94DA230895E091E6
:1047E0001001F091110180914E028083E09110013F
:1047F000F0911101908180914D02892B8083E0918D
:104800001001F0911101908180914C02892B8083DD
:1048100080912B02882381F0E0911001F091110129
:104820009081892B808380911001909111010E94C9
:10483000D52481110E94E5238091100190911101EE
:104840000C94381808950C94222498E0899F9001C4
:104850001124262B20932A020E942A2280912A02C8
:104860008595859585950C94232410922A0280E0E5
:104870000C94232420912A028095822380932A027B
:10488000982F977079F430E0482F082E000C550BC4
:104890002417350739F08595859585950E944B221B
:1048A0000C94352408956FEF7FEF80E090E00C9436
:1048B000783080E090E00E94543021E08D3E9E4FA1
:1048C00009F020E0822F089582E090E00C944630B9
:1048D00083E090E00C94463084E090E00C94463005
:1048E000682F84E090E00C945A30AB01BC018FE05B
:1048F00090E00C946C30AB01BC0183E190E00C942F
:104900006C3060E070E0CB010C947B2460E070E0E0
:10491000CB010E9475240C9481246DEE7EEF80E023
:1049200090E00E94783060E082E090E00E945A308F
:1049300060E083E090E00E945A30109226021092CC
:104940002702109228021092290260E084E090E091
:104950000E945A3060E085E090E00E945A3060E0AA
:1049600086E090E00E945A306FEF87E090E00E946E
:104970005A3040E050E0BA0188E090E00E946C308C
:1049800060E08DE090E00E945A3040E050E0BA01D3
:1049900088E190E00E946C3060E087E190E00E9446
:1049A0005A300C9486240C948D24FC01329680910C
:1049B0002201882331F08091720387FF02C09EE1BB
:1049C00001C096E080E0915028F021912223D9F394
:1049D0008F5FF9CF08959C01FC0132969FEF80E034
:1049E0004191461789F09F3F19F4411101C0982F5A
:1049F0008F5F8630A9F79F3F39F0F901E90FF11D6C
:104A000097FDFA95628308950895FC013296089601
:104A10002081261301C010823196E817F907C1F7EB
:104A20000895262F2695269526952E3168F4FC01AB
:104A3000E20FF11D677021E030E001C0220F6A959E
:104A4000EAF78281282B22830895262F2695269522
:104A500026952E3170F4FC01E20FF11D677021E004
:104A600030E001C0220F6A95EAF720958281282361
:104A70002283089520912201222329F0209172039C
:104A800027FD0C9411250C94EB2420912201222364
:104A900029F02091720327FD0C9425250C940525FF
:104AA00020912201FC013296222331F08091720381
:104AB00087FF02C08EE101C086E0DF011D928A956A
:104AC000E9F7089508950C9462250E94632580916A
:104AD0007803843009F439C01092500220E488E150
:104AE00090E00FB6F894A895809360000FBE2093D5
:104AF000600080E00E94DA070E94F6128091510265
:104B000081110AC081E080935102809180028170FE
:104B1000809352020E9424120E94632583B7817FF2
:104B2000846083BF83B7816083BF7894889583B79F
:104B30008E7F83BF0FB6F894A8958091600088613E
:104B400080936000109260000FBE0895089508954C
:104B5000CF930E94A6250E94DC0C0E94A725C0E0EE
:104B60008C2F0E94870C892B29F4CF5FC530C1F7A9
:104B700080E001C081E0CF91089508950C94BD2597
:104B80000E94EE1D0E942C180E94DA07109251021A
:104B90008091520281110E94EE120E9436120C94F2
:104BA000BE251F920F920FB60F9211248F939F93E1
:104BB000AF93BF9380915002811113C080916E0317
:104BC00090916F03A0917003B09171034196A11D64
:104BD000B11D80936E0390936F03A0937003B09305
:104BE0007103BF91AF919F918F910F900FBE0F9066
:104BF0001F90189582E084BD93E095BD9AEF97BD14
:104C000080936E0008952FB7F89480916E03909171
:104C10006F03A0917003B09171032FBF0895CF92DD
:104C2000DF92EF92FF920F931F932FB7F89440916A
:104C30006E0350916F0360917003709171032FBFE9
:104C40006A017B01EE24FF248C0120E030E0C016D5
:104C5000D106E206F30610F4415051099A01281BCF
:104C6000390BC9011F910F91FF90EF90DF90CF900A
:104C7000089578941F920F920FB60F9211248F937C
:104C80009F93AF93BF9380916E0390916F03A09118
:104C90007003B09171030196A11DB11D80936E0345
:104CA00090936F03A0937003B0937103BF91AF9182
:104CB0009F918F910F900FBE0F901F90189581E0DC
:104CC0008093E00080E28093D8001092C9008FE1C9
:104CD0009EE40197F1F700C0000087E090EBDC0153
:104CE0008093810390938203A0938303B093840302
:104CF0009CE088E10FB6F894A895809360000FBE01
:104D000090936000FFCF0E945924811102C00E943D
:104D1000D3240E94642480934F020E946C2490E06C
:104D200090937303809372030E946824682F70E04D
:104D300080E090E00C94C9218091560280FF0BC066
:104D40006091150185E0689FB00111247595679504
:104D5000759567952BC081FF09C06091150185E0AD
:104D6000689FB00111247595679520C082FF07C028
:104D70006091150185E0689FB001112417C09091E2
:104D800055029923D1F060911401961788F720916C
:104D9000150185E0289F90011124929FA001939F07
:104DA000500D112470E0CA010E94FD2F603871057A
:104DB00040F46115710539F002C065E070E0862F9E
:104DC00008958FE7089581E008958091560280FF4D
:104DD00008C06091130170E07595679575956795AA
:104DE00021C081FF06C06091130170E07595679541
:104DF00019C082FF04C06091130170E010C090914F
:104E000055029923C1F0609112019617A0F7809185
:104E10001301899FC001112470E00E94FD2F6038AA
:104E2000710528F46115710521F0862F08958FE72B
:104E3000089581E0089561E070E0F4CF803F21F4AF
:104E40000E949C26819504C0813F29F40E949C26E3
:104E500080935A020895823F21F40E949C268195F6
:104E600004C0833F29F40E949C2680935902089530
:104E7000893F19F40E94E52605C08A3F31F40E945B
:104E8000E526819580935B0208958B3F21F40E9473
:104E9000E526819504C08C3F29F40E94E526809385
:104EA0005C020895843F21F480915802816017C00C
:104EB000853F21F480915802826011C0863F21F421
:104EC0008091580284600BC0873F21F48091580282
:104ED000886005C0883F31F48091580280618093DA
:104EE000580208958D3F21F48091560281600BC0D5
:104EF0008E3F21F480915602826005C08F3F29F4D5
:104F0000809156028460809356020895803F39F460
:104F100080915A0287FF6CC010925A0269C0813F8B
:104F200029F480915A021816BCF362C0909159027C
:104F3000823F29F497FF5CC01092590259C0833F09
:104F400019F41916CCF354C0893F41F480915B02E7
:104F500018160CF04DC010925B024AC08A3F29F42B
:104F600080915B0287FF44C0F6CF8B3F39F480917C
:104F70005C0287FF3DC010925C023AC08C3F29F46E
:104F800080915C021816BCF333C0843F21F48091F9
:104F900058028E7F17C0853F21F4809158028D7F83
:104FA00011C0863F21F4809158028B7F0BC0873F50
:104FB00021F480915802877F05C0883F31F48091A9
:104FC00058028F7E8093580213C08D3F21F4809148
:104FD00056028E7F0BC08E3F21F4809156028D7F4A
:104FE00005C08F3F29F4809156028B7F8093560233
:104FF0008091590281110EC080915A0281110AC01C
:1050000080915B02811106C080915C02811102C017
:1050100010925502089587E592E00E9452180E946E
:105020000326909354028093530208951F93CF93C5
:10503000DF9380915302909154020E940F26AC019D
:1050400090915502992321F02091160130E006C07D
:10505000209117018AE0289F9001112442175307DD
:1050600008F47BC080915902C0915A02D0915B0232
:1050700010915C02811107C0C1116BC0D11169C0D0
:10508000111167C06AC09F3F19F09F5F909355024E
:10509000181624F40E949C2680935902809159028C
:1050A00087FF05C00E949C268195809359021C169B
:1050B00024F40E949C2680935A0280915A0287FF12
:1050C00005C00E949C26819580935A023091590216
:1050D0003323E1F020915A022223C1F045EB34033F
:1050E000C0011124892F990F990B009709F481E0D1
:1050F0008093590235EB2303C0011124892F990FA6
:10510000990B009709F481E080935A021D1624F44C
:105110000E94E52680935B0280915B0287FF05C0B9
:105120000E94E526819580935B02111624F40E946B
:10513000E52680935C0280915C0287FF05C00E9497
:10514000E526819580935C02DF91CF911F910C94AD
:105150000B289F3F09F099CFA1CFDF91CF911F91ED
:105160000895E7E5F2E086E0DF011D928A95E9F710
:105170001092550210925602089580917D02089572
:105180000F931F93CF93DF9300D01F92CDB7DEB75D
:105190008C010E94302B823011F0843021F584E0A4
:1051A00089831B830A8382E08093E9008FEF9091CB
:1051B000E800815095FD06C095ED9A95F1F7000045
:1051C0008111F5CF8091E80085FF0DC040E050E0EF
:1051D00063E070E0CE0101960E944D2B8091E800C3
:1051E0008E778093E8000F900F900F90DF91CF9112
:1051F0001F910F910895CF93DF9300D01F92CDB7E9
:10520000DEB720917803243031F523E029838058DC
:1052100091099B838A8382E08093E9008FEF9091CC
:10522000E800815095FD06C095ED9A95F1F70000D4
:105230008111F5CF8091E80085FF0DC040E050E07E
:1052400063E070E0CE0101960E944D2B8091E80052
:105250008E778093E8000F900F900F90DF91CF91A1
:105260000895CF93DF93EC010E94302B823011F030
:105270008430F9F482E08093E9009FEF8091E800A8
:10528000915085FD06C085ED8A95F1F700009111DA
:10529000F5CF8091E80085FF0CC040E050E066E06B
:1052A00070E0CE010E944D2B8091E8008E778093B4
:1052B000E800DF91CF910895CF93DF93EC010E9436
:1052C000302B823011F08430D9F58091220188236F
:1052D00039F08091720387FF03C060E282E002C070
:1052E00068E081E08093E9008FEF9091E8008150C1
:1052F00095FD06C095ED9A95F1F700008111F5CF67
:105300008091E80085FF1CC080912201811105C0B9
:1053100040E050E068E070E003C070E040E050E042
:10532000CE010E944D2B8091E8008E778093E8009B
:1053300080E2FE01ADE5B2E001900D928A95E1F7C1
:10534000DF91CF91089580917703811109C00E9468
:10535000E22C0E943F2D8091E20084608093E20065
:105360000895109277030895089508950C94C02528
:1053700042E061EC81E00E945C2C42E261EC82E060
:105380000C945C2C80917A03833009F460C030F473
:10539000813071F0823009F499C008958A3009F49F
:1053A00085C08B3009F46BC0893009F0A7C020C0DC
:1053B00080917903813A09F0A1C08091E800877F4C
:1053C0008093E80080917D0390917E03892B21F4E6
:1053D00060E28DE592E003C060E080E090E070E084
:1053E0000E94982B8091E8008B778093E8000895C5
:1053F00080917903813209F081C080917D03909181
:105400007E03029708F07AC08091E800877F80933E
:10541000E8008091E80082FD05C080917803811149
:10542000F8CF6CC02091F3008091F20090E0922BB5
:10543000029729F48091F1008B7F813021F48091D3
:10544000F10080937D028091E8008B7753C08091BA
:105450007903813A09F052C080917D0390917E03D7
:10546000892B09F04BC08091E800877F8093E8008A
:105470008091E80080FFFCCF8091220136C08091AE
:1054800079038132D9F580917D0390917E03892B38
:10549000A9F58091E800877F8093E8000E94912C15
:1054A00080917B03809322010C94EE1D80917903FF
:1054B000813221F58091E800877F8093E8000E9487
:1054C000912C80917C0380937E02089580917903D2
:1054D000813AA1F48091E800877F8093E800809171
:1054E000E80080FFFCCF80917E028093F1008091E4
:1054F000E8008E778093E8000C94912C089584B78F
:10550000877F84BF0FB6F894A8958091600088616A
:1055100080936000109260000FBE80E8809361006D
:10552000109261000E949A180E94E22C0E943F2D66
:105530008091E20084608093E20078940E94CE2FF4
:105540000E94A21888E191E00E94271880917803B8
:10555000853069F40E946525809176038823B1F334
:105560000E94A825882391F30E94372BEFCF0E9439
:10557000AC180E94F912EACF0C94BE2A292F3327C7
:1055800023303105C9F064F42130310581F0223037
:10559000310509F04CC08BE390E025EF3CE04BC0B7
:1055A0002132310521F12232310589F140C082E1F9
:1055B00090E020E33DE03FC099278130910571F0F4
:1055C0002CF4892BA1F5E1EFFCE00DC082309105B0
:1055D00041F0039761F5E5ECFCE005C0E1EEFCE08D
:1055E00002C0EBECFCE0849190E09F0124C06115C7
:1055F000710541F061307105D1F489E090E020E25D
:105600003DE019C089E090E027E03DE014C061155D
:10561000710541F06130710551F480EC90E022E4B5
:105620003DE009C080E490E022E03EE004C080E07C
:1056300090E020E030E0FA0131832083089508955E
:10564000CF93C82F0E941F2BC0937F02CF91089544
:1056500080917803843011F081E0089582E008950C
:1056600080917F02811102C00C94282B089580E163
:1056700089BD82E189BD09B400FEFDCF8091D800CB
:105680008F7D8093D8008091E00082608093E0005D
:105690008091E00081FDFCCF0895CF92DF92EF92E0
:1056A000FF920F931F93CF93DF93EC018B016A015D
:1056B0000E94B02C811133C0C114D10439F0F6011D
:1056C00080819181081B190BC80FD91FE12CF12C87
:1056D0000115110519F18091E80085FD16C0809132
:1056E000E8008E778093E800C114D10449F0F601F8
:1056F00080819181E80EF91EF182E08285E00FC081
:105700000E94B02C882321F30AC089918093F10074
:1057100001501109FFEFEF1AFF0ADACF80E0DF91A5
:10572000CF911F910F91FF90EF90DF90CF90089550
:1057300020917F03309180032617370748F06115C9
:10574000710539F42091E8002E772093E80001C01C
:10575000B90140E061157105A9F120917803222378
:1057600009F443C0253009F442C02091E80023FD2C
:1057700040C02091E80022FD32C02091E80020FFC7
:10578000E9CF4091F3002091F20030E0342BFC018E
:10579000CF016115710559F02830310540F4819130
:1057A0008093F100615071092F5F3F4FF1CF41E0CD
:1057B0002830310509F040E02091E8002E77209351
:1057C000E800C8CF4111C9CF0AC08091780388236F
:1057D00061F0853061F08091E80083FD0AC080911E
:1057E000E80082FFF2CF80E0089582E0089583E030
:1057F000089581E0089520917F033091800326175A
:10580000370748F06115710539F42091E8002E77CB
:105810002093E80001C0B901FC0120E06115710589
:1058200091F180917803882309F440C0853009F410
:105830003FC08091E80083FD3DC08091E80082FD7B
:105840002FC08091E80080FFE9CF2091F300809184
:10585000F20090E0922B6115710559F088309105A6
:1058600040F424912093F100319661507109019622
:10587000F2CF21E0089709F020E08091E8008E77D0
:105880008093E800CBCF2111CCCF0AC08091780360
:10589000882361F0853061F08091E80083FD0AC0C3
:1058A0008091E80082FFF2CF80E0089582E00895C1
:1058B00083E0089581E00895982F973058F59093EC
:1058C000E900981739F07091EC002091ED005091AB
:1058D000F00003C0242F762F50E021FF19C0309133
:1058E000EB003E7F3093EB003091ED003D7F309335
:1058F000ED003091EB0031603093EB007093EC00E1
:105900002093ED005093F0002091EE0027FF07C098
:105910009F5FD3CF8F708093E90081E0089580E08E
:1059200008958091790387FF11C08091E80082FD7E
:1059300005C0809178038111F8CF11C08091E800F3
:105940008B770BC080917803882349F08091E80021
:1059500080FFF8CF8091E8008E778093E80008956B
:105960002091E4003091E50095E64091EC00842F11
:10597000817040FF22C08091E80080FD1CC08091B2
:105980007803882391F0853091F08091EB0085FDBC
:1059900010C04091E4005091E5004217530729F3ED
:1059A0009A01915011F784E0089582E0089583E010
:1059B000089581E0089580E008954091E80042FF55
:1059C000DECF08950E94502D0E94582DE0EEF0E0A9
:1059D000808181608083E8EDF0E080818F77808333
:1059E00019BCA7EDB0E08C918E7F8C9380818F7E67
:1059F00080831092770308950F931F93CF93DF93C3
:105A00000E94502D0E94582DC8EDD0E088818F77DC
:105A1000888388818068888388818F7D888319BC8A
:105A2000109278031092740310927603109275030B
:105A300000EE10E0F80180818B7F80838881816097
:105A4000888342E060E080E00E945C2CE1EEF0E0C0
:105A500080818E7F8083E2EEF0E0808181608083B0
:105A6000808188608083F80180818E7F8083888137
:105A700080618883DF91CF911F910F910895E8EDA8
:105A8000F0E080818F7E8083E7EDF0E080818160AF
:105A9000808384E082BF81E0809377030C94FC2CA8
:105AA000E8EDF0E080818E7F80831092E20008951F
:105AB0001092DA001092E10008951F920F920FB633
:105AC0000F9211242F933F934F935F936F937F9384
:105AD0008F939F93AF93BF93EF93FF938091E100D8
