:100000000C944B070C9492070C9492070C94920753
:100010000C9492070C9492070C9492070C949207FC
:100020000C9492070C9492070C94582F0C942C303B
:100030000C94F6260C9492070C9492070C94920759
:100040000C9492070C9492070C9492070C949207CC
:100050000C9492070C944D270C9492070C949207E1
:100060000C9492070C9492070C9492070C949207AC
:100070000C9492070C9492070C9492070C9492079C
:100080000C9492070C9492070C9492070C9492078C
:100090000C9492070C9492070C9492070C9492077C
:1000A0000C9492070C9492070C94920729001E005E
:1000B0001F0020002100220023002400250026002C
:1000C00027002D002E002A0035022B0014001A00F4
:1000D0000800150017001C0018000C001200130087
:1000E0002F00300031004C003900040016000700DA
:1000F00009000A000B000D000E000F003300340051
:10010000000028004B00E10000001D001B0006005D
:100110001900050011001000360037003800E50016
:1001200052004E00E000E3000000E200000000008A
:100130002C000000000000000151E40050005100BC
:100140004F0001003A003B003C003D003E003F00F4
:1001500040004100420043004400450001004A00C5
:100160000100C25C5200C35CC55CC65CC75CC85C75
:10017000C95CCA5C46004700480001004D00010010
:10018000500051004F00010001000100010001007A
:1001900049004A004B00000001000100010000007E
:1001A000005CAA00A800A9000100010001000100F4
:1001B0004C004D004E000100010001000100000054
:1001C000010000000000010000000000000001002C
:1001D0000100010001000100010001000100010017
:1001E0000100010001000100010001000100010007
:1001F00001000100010001000100010001000100F7
:1002000001000100010001000100010001000100E6
:1002100001000100010001000100010001000100D6
:1002200001000100010001000100010000000100C7
:1002300001000100000001000100010001000100B7
:1002400001000100010001000100010001000100A6
:10025000010001000000010000000000010000009A
:100260000000000001000100010001000100010088
:100270000100010001000100010001000100010076
:100280000100010001000100010001000100010066
:100290000100010001000100010001000100010056
:1002A0000100010001000100010001000100010046
:1002B0000100010001000100010001000100010036
:1002C0000100000001000100010000000100010028
:1002D0000100010001000100010001000100010016
:1002E0000100010001000100010000000100000008
:1002F00000000100000000000000010001000100FA
:1003000001000100010001000100010001000100E5
:1003100001000100010001000100010001000100D5
:1003200001000100010001000100010001000100C5
:1003300001000100010001000100010001000100B5
:1003400001000100010001000100010001000100A5
:100350000100010001000100000001000100010096
:100360000000010001000100010001000100010086
:100370000100010001000100010001000100010075
:10038000000001000000000001000000000000006B
:100390000100010001000100010001000100010055
:1003A0000100010001000100010001000100010045
:1003B0000100010001000100010001000100010035
:1003C0000100010001000100010001000100010025
:1003D0000100010001000100010001000100010015
:1003E0000100010001000100010001000100000006
:1003F00001000100010000000100010001000100F6
:1004000001000100010001000100010001000100E4
:1004100001000100010000000100000000000100D7
:1004200000000000000001000100010001000100C7
:1004300001000100010001000100010001000100B4
:1004400001000100010001000100010001000100A4
:100450000100010001000100010001000100010094
:100460000100010001000100010001000100010084
:100470000100010001000100010001000100010074
:100480000100010000000100010001000000010066
:100490000100010001000100010001000100010054
:1004A0000100010001000100010001000000010045
:1004B0000000000001000000000000000100010039
:1004C0000100010001000100010001000100010024
:1004D0000100010001000100010001000100010014
:1004E0000100010001000100010001000100010004
:1004F00001000100010001000100010001000100F4
:1005000001000100010001000100010001000100E3
:1005100001000100010001000100000001000100D4
:1005200001000000010001000100010001000100C4
:1005300001000100010001000100010001000100B3
:1005400001000000010000000000010000000000A8
:100550000000010001000100010001000100010094
:100560000100010001000100010001000100010083
:100570000100010001000100010001000100010073
:100580000100010001000100010001000100010063
:100590000100010001000100010001000100010053
:1005A0000100010001000100010001000100010043
:1005B0000000010001000100000001000100010035
:1005C0000100010001000100010001000100010023
:1005D0000100010001000100000001000000000016
:1005E0000100000000000000010001000100010006
:1005F00001000100010001000100010001000100F3
:1006000001000100010001000100010001000100E2
:1006100001000100010001000100010001000100D2
:1006200001000100010001000100010001000100C2
:1006300001000100010001000100010001000100B2
:1006400001000100010000000100010001000000A4
:100650000100010001000100010001000100010092
:100660000100010001000100010001000100000083
:100670000100000000000100000000000000010077
:100680000100010001000100010001000100010062
:100690000100010001000100010001000100010052
:1006A0000100010001000100010001000100010042
:1006B0000100010001000100010001000100010032
:1006C0000100010001000100010001000100010022
:1006D0000100010001000100010001000000010013
:1006E0000100010000000100010001000100010003
:1006F00001000100010001000100010001000100F2
:1007000001000100000001000000000001000000E5
:1007100000000000010001000100010001000100D3
:1007200001000100010001000100010001000100C1
:1007300001000100010001000100010001000100B1
:1007400001000100010001000100010001000100A1
:100750000100010001000100010001000100010091
:100760000100010001000100010001000100010081
:100770000100000001000100010000000100010073
:100780000100010001000100010001000100010061
:100790000100010001000100010000000100000053
:1007A0000000010000000000000001000100010045
:1007B0000100010001000100010001000100010031
:1007C0000100010001000100010001000100010021
:1007D0000100010001000100010001000100010011
:1007E0000100010001000100010001000100010001
:1007F00001000100010001000100010001000100F1
:1008000001000100010001000000010001000100E1
:1008100000000100010001000100010001000100D1
:1008200001000100010001000100010001000100C0
:1008300000000100000000000100000000000000B6
:1008400001000100010001000100010001000100A0
:100850000100010001000100010001000100010090
:100860000100010001000100010001000100010080
:100870000100010001000100010001000100010070
:100880000100010001000100010001000100010060
:100890000100010001000100010001000100000051
:1008A0000100010001000000010001000100010041
:1008B0000100010001000100010001000100010030
:1008C0000100010001000000010000000000010023
:1008D0000000000000000100010001000100010013
:1008E0000100010001000100010001000100010000
:1008F00001000100010001000100010001000100F0
:1009000001000100010001000100010001000100DF
:1009100001000100010001000100010001000100CF
:1009200001000100010001000100010001000100BF
:1009300001000100000001000100010000000100B1
:10094000010001000100010001000100010001009F
:100950000100010001000100010001000000010090
:100960000000000001000000000000000100010084
:10097000010001000100010001000100010001006F
:10098000010001000100010001000100010001005F
:10099000010001000100010001000100010001004F
:1009A000010001000100010001000100010001003F
:1009B000010001000100010001000100010001002F
:1009C0000100010001000100010000000100010020
:1009D0000100000001000100010001000100010010
:1009E00001000100010001000100010001000100FF
:1009F00001000000010000000000010000000000F4
:100A000000000100010001000100010000000000E1
:100A1000000000002A2B2800000000000000000059
:100A20000000000000000029000000002C1E3420FF
:100A3000212224342627252E362D3738271E1F2025
:100A40002122232425263333362E37381F0405066A
:100A50000708090A0B0C0D0E0F10111213141516AE
:100A60001718191A1B1C1D2F3130232D35040506AC
:100A70000708090A0B0C0D0E0F101112131415168E
:100A80001718191A1B1C1D2F3130354C000000009F
:100A90000000000000000000000000000000000056
:100AA0007E0F00D4FFFFFFC70000007832190A0054
:100AB000047F3F1F643214643214783C1E1E140AF3
:100AC000052223252628292A2C2D2F30323335368E
:100AD000383A3B3D3E4042434547494A4C4E5051CF
:100AE000535557595A5C5E6062646668696B6D6FF6
:100AF00071737577797B7D7F81838587898A8C8EF9
:100B000090929496989A9C9E9FA1A3A5A7A8AAAC00
:100B1000AEAFB1B3B4B6B8B9BBBCBEBFC1C2C3C53A
:100B2000C6C7C9CACBCCCDCED0D1D2D2D3D4D5D6DC
:100B3000D7D7D8D9D9DADADBDBDBDCDCDCDCDCDD0F
:100B4000DDDDDDDCDCDCDCDCDBDBDBDADAD9D9D8F3
:100B5000D7D7D6D5D4D3D2D2D1D0CECDCCCBCAC98B
:100B6000C7C6C5C3C2C1BFBEBCBBB9B8B6B4B3B1BA
:100B7000AFAEACAAA8A7A5A3A19F9E9C9A98969455
:100B800092908E8C8A89878583817F7D7B7977752A
:100B900073716F6D6B6968666462605E5C5A595709
:100BA000555351504E4C4A4947454342403E3D3BC8
:100BB0003A3836353332302F2D2C2A292826252352
:100BC00022FFAA7F5540000101010101010101013D
:100BD00002020202020202020203030303030303EE
:100BE00003040404040404040505050505060606BB
:100BF0000606070707070708080808090909090A78
:100C00000A0A0B0B0B0C0C0C0D0D0D0E0E0E0F0F1C
:100C10000F101011111112121313141415151616AA
:100C20001717181819191A1A1B1B1C1D1D1E1E1F19
:100C30002020212222232424252626272829292A68
:100C40002B2C2D2D2E2F3031323233343536373890
:100C5000393A3B3C3D3E3F4041424344454647488C
:100C6000494A4C4D4E4F50515354555658595A5B62
:100C70005D5E5F616264656668696B6C6D6F707202
:100C8000737577787A7B7D7E8082838587888A8C6E
:100C90008E8F91939596989A9C9EA0A2A3A5A7A9A2
:100CA000ABADAFB1B3B5B7BABCBEC0C2C4C6C9CB99
:100CB000CDCFD1D4D6D8DBDDDFE2E4E7E9EBEEF04F
:100CC000F3F5F8FAFDFF04033000000016034E00B0
:100CD00045004F003600370053002000500043000D
:100CE0004200000020034200610063006B007000BE
:100CF00072006F00700020005300740075006400E3
:100D000069006F0000000403090409025B0003018D
:100D100000A0FA09040000010301010009211101EA
:100D200000012240000705810308000A09040100B0
:100D30000203000000092111010001222200070521
:100D400082032000010705030320000109040200BB
:100D5000010300000009211101000122BC00070568
:100D6000840320000A1201100100000008504247CD
:100D7000520100010203010660FF0961A10109623D
:100D8000150026FF009520750881020963150026CD
:100D9000FF00952075089102C005010902A1018597
:100DA000020901A100050919012905150025019570
:100DB000057501810295017503810105010930095D
:100DC000311581257F950275088106093815812521
:100DD0007F950175088106050C0A38021581257F6B
:100DE000950175088106C0C005010980A101850330
:100DF00019012AB700150126B70095017510810069
:100E0000C0050C0901A101850419012AA0021501E0
:100E100026A002950175108100C005010906A101F7
:100E20008505050719E029E71500250195087501D5
:100E300081020507190029EF1500250195F07501BC
:100E40008102050819012905950575019102950191
:100E500075039101C005010906A101050719E029E3
:100E6000E715002501950875018102950175088136
:100E7000010507190029FF150026FF0095067508D2
:100E80008100050819012905950575019102950153
:100E900075039101C00011241FBECFEFDAE0DEBF61
:100EA000CDBF04B603FE27C080915F059091600519
:100EB000A0916105B09162058730904BA740B04B7F
:100EC000D1F410925F0510926005109261051092A6
:100ED000620514BE84B7877F84BF0FB6F894A895C7
:100EE00080916000886180936000109260000FBE66
:100EF000E0E0F8E3099511E0A0E0B1E0E2E4F7E614
:100F000002C005900D92AC3DB107D9F725E0ACEDDC
:100F1000B1E001C01D92AF35B207E1F70E941D2C70
:100F20000C9450330C94000090E080E008950895F4
:100F3000089581E0089581FF03C03E9A4698089580
:100F40003E98FCCF81E008950C94990708950C9485
:100F5000A6071F93CF93DF9300D000D00F92CDB799
:100F6000DEB749835A836B833091810389819A81EB
:100F700031111DC06623B9F02223A9F00E94DD23A0
:100F8000182F682F89819A810E94892369817A812B
:100F9000812F0F900F900F900F900F90DF91CF91B6
:100FA0001F910C941D170E94B523182FEFCF0E949C
:100FB000DD2369817A81EDCFFC01262F40815181AB
:100FC0006281738184810C94A907CF93DF93EC0134
:100FD00060E00E94DC07BE01DF91CF910C94A7076F
:100FE000FF920F931F93CF93DF93E82FF0E0E45F1E
:100FF000F54FF490C82FC695C695C695D0E0FE0172
:10100000E456F54F0491877010E0082E02C0159544
:1010100007950A94E2F701701127C457D54FFE01D6
:10102000C491D0E002C0D595C7958A95E2F7C1700A
:10103000DD270115110519F081EE0E94791B20971B
:1010400019F086EE0E94791B8F2D0E94611CCD2B1A
:1010500019F086EE0E940B1C012B41F081EEDF910E
:10106000CF911F910F91FF900C940B1CDF91CF91AA
:101070001F910F91FF900895EF92FF920F931F938E
:10108000CF93DF93EC01162F0AE08881882309F4BF
:1010900054C0813009F04EC08981813099F47E01BD
:1010A00022E0E20EF11C8A810E94611CE701219678
:1010B000812F815050F3EFE9FFE03197F1F700C045
:1010C0000000F7CF823041F47E0182E0E80EF11C8F
:1010D0008A810E94791BEACF833041F47E01E2E0ED
:1010E000EE0EF11C8A810E940B1CE0CF843011F0BF
:1010F0002196DDCF2A81229690E080E0AE014F5FFD
:101100005F4F2053330B2A30310548F0019778F2B6
:10111000EFE9FFE03197F1F700C00000F7CF089F3B
:10112000B001099F700D1124C901860F971F2981F5
:10113000EA01E4CF0E94F007BACFDF91CF911F916F
:101140000F91FF90EF90089560E00C943C088F920F
:101150009F92AF92BF92CF92DF92EF92FF920F9346
:101160001F936B017C0181E090E0A0E0B0E04C01B6
:101170005D0104C0880C991CAA1CBB1C4A95D2F7BF
:10118000B501A4014C015D0104C0880C991CAA1C86
:10119000BB1C2A95D2F7482959296A297B2904C002
:1011A000880F991FAA1FBB1F0A95D2F78A019B01BE
:1011B0000C211D212E213F21041715072607370773
:1011C00089F48C299D29AE29BF29BC01CD011F912D
:1011D0000F91FF90EF90DF90CF90BF90AF909F90D6
:1011E0008F90089580959095A095B0958C219D2124
:1011F000AE21BF21EACF0F93382F262F6091EC0349
:101200007091ED038091EE039091EF03042F432F33
:101210000E94A7080F910C94C7220E9497270E9452
:101220002725811102C00E94C4250C94770B0C94D1
:10123000790B08950E94F01E0E9419092FEF84E394
:101240009CE0215080409040E1F700C000000C94E9
:1012500071270F931F93CF93DF93EC0161E00E94FE
:10126000DC078C01BE010E94F214882389F1BE01C3
:10127000C8010E94A407882359F1BE01C8010E9439
:101280007318882329F1BE01C8010E94C51888235C
:10129000F9F0BE01C8010E94E8198823C9F0BE0117
:1012A000C8010E94FF13882399F08A81882339F0AE
:1012B00001158CE5180751F00E3D1C4579F0CE0163
:1012C000DF91CF911F910F910C94A2070E941A09F0
:1012D00080E0DF91CF911F910F9108950E94C42566
:1012E000F7CF0C949B0781E008950C947309CF937A
:1012F000C82F0E9471098C2FCF910C947509089505
:10130000FC01EE0FFF1FE455F54F85919491089570
:10131000CF93DF930E941D170E949D0AEC01811557
:1013200020E5920708F042C0811530E4930708F0E9
:10133000BDC0883E910528F5803E910508F09DC00E
:10134000883A910588F4853A910508F08FC081307C
:10135000910509F492C0009709F48FC0049708F032
:101360008CC0D0E0C0E089C08F3B910508F489C0F3
:10137000805C9109C03CD105A0F30E948009EC017A
:101380007CC08115904250F4C11581E0D80708F067
:1013900074C0C03FD10528F3D0656FC0C11590E37C
:1013A000D90708F079C0CE019F70E7CF811525E5F8
:1013B000920758F5811534E5930708F0A6C081150A
:1013C00042E5940750F4C11581E5D80708F471C0CF
:1013D000DC2FCC27C16FD06A50C0982F9695969578
:1013E0009E0123703327C115D34508F07FC0C1E0AB
:1013F000D0E002C0CC0FDD1F2A95E2F720E2929FD9
:10140000C0011124C82BD92B6FC0C11589E5D8079D
:10141000A8F4C11598E5D90708F07CC0C11526E5E8
:10142000D20708F09ECF8C2F0E94340BC82FD0E03B
:10143000DC2FCC27CC27DF71D0621FC0C1153AE565
:10144000D30708F46CC0CE0190568115904208F085
:1014500088CF8D2F8F710E94340B90E0982F8827B2
:1014600088279F719C012C2BE901E6CFC55AD0E05B
:10147000C65ADE4FC881D0E0D064CE01DF91CF9153
:101480000895C85AD0E0CC0FDD1FC45DDE4F09902F
:10149000D881C02DD464F1CFCE019927D3FF03C0EA
:1014A000EC01D86CEACFEC01D06CE7CFDF70D06AEA
:1014B000E4CFCE01E4E096958795EA95E1F7837055
:1014C0002C2F26952695237090E2299F90011124B8
:1014D000382B8C2F8370C1E0D0E002C0CC0FDD1F11
:1014E0008A95E2F7C22BD32BDC68C7CFC1E0D0E0EE
:1014F00002C0CC0FDD1F2A95E2F730E2939FC001B6
:101500001124C82BD92BDA68B8CFD82FCC27C46FB9
:10151000D06AB3CFDC2FCC27C06FD06AAECF8C2F70
:101520008F700E94340B34E0D695C7953A95E1F759
:10153000CF709C2FEC01D069A0CF82389105B1F11A
:10154000B0F48133910509F475C048F489329105EE
:1015500009F469C08A32910509F473C0089585338E
:10156000910509F459C08933910501F10895833E2D
:101570009105A9F138F4803E9105F9F0823E91057C
:1015800049F10895863E9105A9F1873E9105C9F17B
:10159000843E910519F52091510521FF1FC08091CE
:1015A000500584FD14C087EE90E008952091500509
:1015B0002370A1F080EE90E008952091500520FD69
:1015C00047C03091510530FF09C024FF44C090E06E
:1015D00080E004C02091500522FDF7CF08952091AE
:1015E000500522FD3BC03091510530FDE3CF24FF73
:1015F000F5CFEDCF2091500523FFF0CF24FDE7CFAD
:10160000D2CF2091500523FD2CC03091510531FFE0
:10161000EECF84EE90E008952091500525FFDECFB7
:1016200089E290E008952091500525FFD7CF85E30A
:1016300090E008952091500526FFD0CF8AE290E0F7
:1016400008952091500526FFC9CF81E390E00895C9
:1016500089E390E0089583EE90E0089582EE90E0B3
:10166000089586EE90E008959091500592FF06C08F
:10167000282F28712830F9F4877F846093FF06C0F3
:10168000282F28712831F1F4877E8461209151053B
:1016900020FF06C0382F38713830D9F4877F816039
:1016A00021FF06C0282F28712831D1F4877E81615F
:1016B00094FD877E0895282F24712430F9F68B7FBE
:1016C0008860DCCF282F2471243101F78B7E88615C
:1016D000DDCF382F3171313019F78E7F8860E0CF40
:1016E000282F2171213121F78E7E8861E1CF0C9462
:1016F00097070C949807E82FF0E0EE0FFF1FEA5AC7
:10170000FB4F808191810895089580EA8A95F1F7D1
:101710000895CF93DF93ACE6B1E041E751E0C1E03B
:10172000D0E08D91E82FE295EF70F0E061A18F702D
:101730009E0101C0220F8A95EAF7922F9095962379
:1017400091A382A1822B82A34A175B0751F7ADE5D3
:10175000B1E061E070E08D91E82FE295EF70F0E08C
:1017600041A18F709B0101C0220F8A95EAF7922F49
:101770009095942391A382A1822B82A381E0AC3621
:10178000B80749F710924D0410924C041092570478
:101790001092560410924F0410924E041092590465
:1017A00010925804109251041092500410925B044D
:1017B00010925A04109253041092520410925D0435
:1017C00010925C04109255041092540410925F041D
:1017D00010925E0485E00E94780CDF91CF910C940A
:1017E0000D098F929F92AF92BF92CF92DF92EF92AC
:1017F000FF920F931F93CF93DF938CE6E82E81E047
:10180000F82E0CE414E0912CAA24A394B12CF70137
:1018100081917F01C82FC295CF70D0E099A18F70C0
:10182000650101C0CC0C8A95EAF7892F8C2989A320
:101830008AA18C2C809488218AA30E94850BEDE5D7
:10184000F1E050E040E030E020E06191A62FA29569
:10185000AF70B0E090968C9190E06F7002C095955B
:1018600087956A95E2F780FD3EC0C501042E02C04F
:10187000880F991F0A94E2F7282B392B4F5F5F4F8F
:101880004F30510511F789A1882289A28AA1C82A5F
:10189000CAA2F801808191812817390739F1318373
:1018A000208381E0982A0E5F1F4FF1E7EF16F1E0E9
:1018B000FF0609F0ACCF292D45E066E574E08CE425
:1018C00094E00E94790C0E941709892DDF91CF9135
:1018D0001F910F91FF90EF90DF90CF90BF90AF904E
:1018E0009F908F90089590E080E0C6CF80E0DACF9F
:1018F0000895FF920F931F93CF93DF93F82E092F34
:10190000162FD72FC42F222349F081E08093DE01C8
:101910000E9426279093DD018093DC018091DE01F7
:101920008823A1F08091DC019091DD010E943E2787
:10193000069760F0EF2DF02FA12FBD2F90E080E0F3
:10194000D0E08C179D0744F01092DE01DF91CF911B
:101950001F910F91FF900895219131912D933D9307
:101960000196EFCFEF92FF920F931F93CF93DF93E8
:10197000EB01E82FD11110C0442321F0F0E0EA532D
:10198000F44FE4916E2F7E2F8E2FDF91CF911F9118
:101990000F91FF90EF9008950D2F10E0282F30E069
:1019A000442329F02A53344FF901249130E0F6E022
:1019B000CF9FC0011124EFEFF0E0BF010E94F8318A
:1019C000AB018C2F90E0880F991FA5E5A49FB00173
:1019D000A59F700D1124861B970B982F990F980FB8
:1019E000BF01601B710B629FD001639FB00D729F9E
:1019F000B00D11248B2F9D9FB0011124672F7727E5
:101A0000EF01C61BD70BBE01629FE001639FD00DA3
:101A1000729FD00D11247F01E91AF108E09EB001F8
:101A2000E19E700DF09E700D1124672F7727E61B45
:101A3000F70BE29F8001E39F100DF29F100D112420
:101A4000E12F722F4230510599F048F441155105AC
:101A500069F04130510581F0EB2F8D2F07C04430E4
:101A6000510569F080F046305105B1F76E2F8DCFEA
:101A7000E22F7B2F812FFACFE22F7D2FF7CFEB2F95
:101A8000822F712FF3CF7B2F822FED2FEFCF41E0ED
:101A90000C94B20C0895CF93DF93762FE901682F51
:101AA000842F0E94470D798368838A83DF91CF91C9
:101AB0000895433308F042E30C944B0D8091600489
:101AC000982F9E7F61F48170826080936004809182
:101AD0006304833318F082E38093630408958635AA
:101AE000B0F381708465F1CF88E090E00C94F1321E
:101AF000CF92DF92EF92FF926B017C010E945E0D0C
:101B0000B701A60188E090E0FF90EF90DF90CF90C2
:101B10000C940F33609160047091610480916204B1
:101B2000909163040C94780DE0E6F4E083E0808308
:101B300011828FEF828382E38383148260817181BB
:101B4000828193810C94780D8091600480FF02C0A3
:101B50008695089580E0089590916404933018F478
:101B60009F5F90936404882351F0609160047091AA
:101B7000610480916204909163040C94780D08953F
:101B800081E00C94AC0D90916404992319F091506C
:101B900090936404882351F0609160047091610413
:101BA00080916204909163040C94780D089581E013
:101BB0000C94C30D8091640408958093640466239B
:101BC00051F0609160047091610480916204909181
:101BD00063040C94780D089560E00C94DD0D809101
:101BE00061040895809162040895809163040895CA
:101BF00070E00C946F14609108018091600480FF84
:101C00000AC08091070123E0829FC00111248B59F3
:101C10009B4F0C94F80D8091090190910A0123E0EB
:101C2000829FF0011124EB59FB4F891750F7118265
:101C3000108212828F5F3396F8CF9091600490FFEC
:101C400014C09091090120910A0133E0939FF001A3
:101C50001124EB59FB4F921710F00C94FB0D81836C
:101C6000608342839F5F3396F6CF0895CF93DF93CF
:101C700000D00F92CDB7DEB79091600490FF0AC0FC
:101C80009E012F5F3F4F0E94590D4B8169818A81D0
:101C90000E941D0E0F900F900F90DF91CF9108952D
:101CA000CF93DF93EC01EC81F0E0EF53F54F4491DB
:101CB000E0E6F4E0628181810E94360E8C818F5FC4
:101CC0008C83DF91CF910895CF93DF93EC01E0E611
:101CD000F4E0438162818C810E94360E8C818F5F9B
:101CE0008C83DF91CF9108950F931F93CF93DF9350
:101CF00000D00F92CDB7DEB78C018091DF0181114A
:101D00000AC09E012F5F3F4F42E36FEF0E94590DC3
:101D10008A818093DF01F8016481613069F08091EC
:101D2000DF0140E0662361F040E0623011F4409151
:101D3000DF0180E060E004C06091DF0140E080E00E
:101D40000E941D0EF801848190E0019663E070E02E
:101D50000E940C3284830F900F900F90DF91CF91EF
:101D60001F910F910895AF92BF92CF92DF92EF92A1
:101D7000FF920F931F93CF93DF9300D00F92CDB7B5
:101D8000DEB7182FF62E042FE22E9091600490FFFC
:101D900029C0E92FE695AE2FB0E0AF58BE4F8C9129
:101DA00080936A039E7F923059F59E012F5F3F4FCB
:101DB000812F0E94590D4B8169818A810E941D0EDD
:101DC00010936104F092620400936304EE2051F0DA
:101DD0006091600470916104809162049091630449
:101DE0000E94780D0F900F900F90DF91CF911F916F
:101DF0000F91FF90EF90DF90CF90BF90AF9008953C
:101E0000823019F400916304DBCF863019F410910D
:101E10006104D6CF8930D9F3893191F6E9518E2FFB
:101E20008170D82EE695F0E0EF53F44FA590B49072
:101E3000C12CBB2460910B01C61618F00E94FB0D4B
:101E4000BFCF2C2D30E0A29EC001A39E900DB29E6C
:101E5000900D112470E00E94F831812FD11013C031
:101E6000860F40910901420F532F511D9A01220FF5
:101E7000331F240F351F2B593B4F402F6F2D0E94CE
:101E8000590DC394D7CF861BECCFE0E6F4E09181E7
:101E9000282F4381628188E0890F0C94B30E81E082
:101EA0000C94450FE0E6F4E09181282F4381628194
:101EB00088EF890F0C94B30E81E00C94520FE0E68A
:101EC000F4E0628128E0620F08F46FEF282F43816D
:101ED00081810C94B30E81E00C945F0FE0E6F4E096
:101EE000628128E0621B08F460E0282F4381818131
:101EF0000C94B30E81E00C946E0FE0E6F4E04381A5
:101F000028E0420F08F44FEF282F628181810C9462
:101F1000B30E81E00C947D0FE0E6F4E0438128E00D
:101F2000421B08F440E0282F628181810C94B30E9B
:101F300081E00C948C0F20E00C94B30EEF92FF9292
:101F40001F93CF93DF93EC0110E0EE24EA94F12C81
:101F500060910B01161770F00E94FB0D9A818C8125
:101F600090FF27C08F5F8C83DF91CF911F91FF90EF
:101F7000EF90089520910901422F410F5527551FD9
:101F8000CA019A01220F331F280F391F2B593B4FCB
:101F900070E0C7010E940C32962F8C81409163043F
:101FA00060916204199F800D11240E94590D1F5FDA
:101FB000CFCF8150D8CFAF92BF92CF92DF92EF9226
:101FC000FF920F931F93CF93DF93FC0182810FEF5A
:101FD00080FF01E010E04DE4A42E80910B01181762
:101FE000C8F00E94FB0D8091E101013009F055C05D
:101FF000811102C080910B0181508093E101DF913A
:10200000CF911F910F91FF90EF90DF90CF90BF90F5
:10201000AF900895C0910901C12ED12CCC0DDD2DBA
:10202000D11DCE01880F991FC80FD91FCB59DB4F87
:10203000198218821A8234E0E32EF12CB12C80919F
:10204000E1018B0D8E341CF16A2D0E94EA31892F3B
:10205000082E000C990BC816D90691F480916304E0
:102060008E9DA0018F9D500D112455954795559536
:1020700047959E0160916204809161040E94590D10
:10208000B00EF1E0EF1AF108D1F61F5FA6CF87FF7F
:10209000DFCF90910B01890FDBCF90E0019660912B
:1020A0000B0170E00E940C32A8CF0F931F93CF93C7
:1020B000DF938091090190910A0123E0829FF00152
:1020C0001124EB59FB4F891740F1C0E0D3E0609138
:1020D0000B01C61740F10E94FB0D20910501809174
:1020E000E001820F8093E00190910601920F90939E
:1020F0000601191654F4082E000C990B40910B019F
:102100004150550B841795071CF02195209305012C
:10211000DF91CF911F910F91089511821082128249
:102120008F5F3396D0CF0C2F10E070E0C8010E9473
:102130000C3220910901820F482F50E02091E001DC
:10214000022E000C330B02171307BCF0209106017E
:10215000022E000C330B201731077CF08D9F90016D
:1021600011242B593B4F409163046091620480918C
:1021700061040E94590DCF5FAACFFA01EE0FFF1F35
:10218000E40FF51FEB59FB4F118210821282F3CF3F
:102190008F929F92AF92BF92CF92DF92EF92FF9277
:1021A0000F931F93CF93DF93EC014C81042F10E02A
:1021B0009801D8010E9457329B01AC010E946D32F8
:1021C0004B015C01E0E2F0E0E01BF10BA5E5B0E0C3
:1021D000AC019B010E946D326B017C019F01DF010C
:1021E0000E944F329B01AC010E9478329B01AC01EE
:1021F000280D391D4A1D5B1DC701B6010E94203202
:10220000F22E822F90E039E23F1560F143E0249FE7
:102210009001112435952795122F109500E085E542
:10222000E82EEF1880910B01081758F10E94FB0D62
:102230009C8181E0992319F0903219F48FEF8093FB
:10224000040180910401890F8C83DF91CF911F914C
:102250000F91FF90EF90DF90CF90BF90AF909F9045
:102260008F90089525E530E0B901681B790B9B013B
:10227000220F331F260F371F37FFCCCF2F5F3F4F63
:10228000C9CF8E2D01FD8F2D20910901622F600F86
:102290007727771F9B01220F331F260F371F2B59DC
:1022A0003B4F412F609162040E94590D0F5FBACFDE
:1022B0000F931F93CF93DF93EC0110E000E0909118
:1022C0000B019017110609F06CF40E94FB0D8C8134
:1022D00090E00196817099278C83DF91CF911F91B7
:1022E0000F91089520910901A801420F511D9A01F3
:1022F000220F331F240F351F2B593B4F4C81609108
:1023000062048091610496959017110651F04CF08B
:10231000442349F0409163040E94590D0F5F1F4F01
:10232000CECF4423B9F340E0F7CF8F929F92AF9284
:10233000BF92CF92DF92EF92FF920F931F93CF93B2
:10234000DF93FC01B280948081E0848300E015E09B
:102350005BE4A52E88248394EE24EA94F12C7BE49C
:10236000C72ED12C80910B01081770F0DF91CF910F
:102370001F910F91FF90EF90DF90CF90BF90AF90A3
:102380009F908F900C94FB0DC02FD0E01C9FF0010C
:102390001D9FF00D1124EE51FE4F91101CC01382B1
:1023A000128220910901CE01820F911D9C01220F02
:1023B000331F280F391F2B593B4F1C9FF0011D9FC6
:1023C000F00D1124EE51FE4F4281618180810E9407
:1023D000590D0F5FC7CF2381222379F12150238329
:1023E00034818A2D821B311101C0822F1C9FF00184
:1023F0001D9FF00D1124EE51FE4F90916304899FB3
:10240000C0011124B6010E94F8316283211104C079
:10241000332311F01482A38222E02B1510F21C9FAB
:10242000F0011D9FF00D1124EE51FE4F80916104CB
:102430008083809162048183B4CF0E94CC32823049
:1024400091400CF0AECF82E08B1530F50E94CC327B
:10245000B7010E940C321C9FF0011D9FF00D11244A
:10246000EE51FE4F808322E02B15C8F40E94CC323F
:10247000209162042695622F70E00E940C32280F92
:102480001C9FF0011D9FF00D1124EE51FE4F218382
:102490001282A382848285CF80916104DCCF209157
:1024A0006204EECFE0E6F4E080818E7F808360817D
:1024B0007181828193810E94780D10926B032FEFBE
:1024C00080E792E0215080409040E1F700C000009A
:1024D0000C94FB0DE0E6F4E080818E7F8083109207
:1024E0006B032FEF80E792E0215080409040E1F7AE
:1024F00000C000000C94FB0D60916004669570E0D4
:102500004BE050E08CE091E00E94DC32892B19F422
:1025100081E080936B030E9426279093640380934D
:10252000630308959091600490FF35C0917081110C
:1025300028C0926090936004662351F0609160041B
:102540007091610480916204909163040E94780DFF
:1025500060916004669570E04BE050E08CE091E0A3
:102560000E94DC32892BA1F010926B0381E08093F2
:1025700066034091630460916204809161040C944D
:102580009B0F8B3210F09465D5CF880F982BD2CF4C
:102590000E947C12EBCF0895682F9091600496956D
:1025A00081E0890F8B3208F081E00C94921281E077
:1025B0000C94CC12682F9091600496958FEF890F40
:1025C00009F48AE20C94921281E00C94DA1261E030
:1025D0000C949212E0E6F4E080818160808386951D
:1025E0000C94E7128091600480FD0C9452120C94BC
:1025F000EA1260E00C9492128091690381112EC05E
:102600000E942725811104C00E94C4250E94940DB8
:102610000E94740D6093600470936104809362045F
:10262000909363046E7F61F40E94940D0E94740D78
:1026300060936004709361048093620490936304D8
:102640000E945E0D10926B038091600480FF03C0B6
:1026500086950E94F91281E0809369030895E0E66F
:10266000F4E080818160808386950C94F912109249
:102670006B0308950F931F93CF93DF9380916B03A8
:10268000882309F49DC080916A03E0916004E69577
:10269000E81BE09365038230C9F5F0E0E354F54FA1
:1026A000E491CE2FD0E000E51EE080916603882300
:1026B00089F0109266030E9426279E01209530958E
:1026C000820F931F909364038093630310926803B7
:1026D0001092670380916303909164030E943E27E8
:1026E0008C179D0708F46CC0E0916303F0916403BC
:1026F000CE0FDF1FD0936403C093630383E693E0A0
:10270000F801DF91CF911F910F910994863049F420
:10271000F0E0E654F54FE491CE2FD0E004E61EE061
:10272000C4CF893051F4E695F0E0E954F54FE491D7
:10273000CE2FD0E00EE91FE0B8CF8F3051F4E695F0
:10274000F0E0EC54F54FE491CE2FD0E00BED1FE01C
:10275000ACCF853149F4F0E0EF54F54FE491CE2F42
:10276000D0E005E510E1A1CFC8E2D0E008EC10E12F
:10277000883109F49ACF833239F4EFEAFAE0C5914F
:10278000D49104E71EE091CFC4EFD1E008E511E158
:10279000843209F48ACFC0EDD7E00AE41DE0853227
:1027A00009F083CF8E2F63E00E94DE31E92FF0E045
:1027B000E455F54FE491CE2FD0E005E911E175CF56
:1027C000DF91CF911F910F910895FA01811101C0FE
:1027D000FB010994CF93DF93C82FD62F0E94A40D3D
:1027E0008C1740F00E94A40D8D1720F4DF91CF913B
:1027F0000C94D7128C2FDF91CF910C94E7120F938A
:102800001F93CF938C01FB01C281CC2309F465C0D7
:102810000E9472248272F801E25CFC45E431F10509
:1028200038F4EE5AFC4C0C9442320E94F212C0E092
:102830008C2FCF911F910F91089544EE52E167EDD7
:1028400072E10E94E513F3CF47ED52E164EE72E1CD
:10285000F8CF4CE55FE06FE47FE0F3CF4FE45FE05B
:102860006CE57FE0EECF4AE75FE06BE67FE0E9CF23
:102870004BE65FE06AE77FE0E4CF48E95FE069E8C4
:102880007FE0DFCF49E85FE068E97FE0DACF47ED3E
:102890005DE060EC7DE0D5CF40EC5DE067ED7DE094
:1028A000D0CF81E00E94E712C2CF65E082E00E94B3
:1028B000EA13BDCF68E086E0FACF6EE089E0F7CF9B
:1028C00064E18FE0F4CF67E185E1F1CF88E1EACF01
:1028D00062E289E1ECCF83E2E5CFC1E0A9CF809A43
:1028E00041B34E7F51B35160EFB7F8949B01220F73
:1028F000331F260F371F280F391F2817390741F4B8
:10290000EFBF8FE594E00197F1F700C00000089554
:10291000DC016D91CD0178E051BB000000C067FF84
:1029200041BB660F000000C000C000C041BB00C03A
:102930007A9591F7E2CF82E290E00E94E93281320B
:1029400089F483E290E00E94E932853059F484E210
:1029500090E00E94E93291E0843109F090E0892F03
:102960008170089580E0FCCFCF93C82F6FEF811165
:1029700061E282E290E00E94FD326FEFC11165E0FA
:1029800083E290E00E94FD326FEFC11164E184E2C6
:1029900090E0CF910C94FD3280E00E94B4140C942E
:1029A0002125089585E290E00E94E932682F70E0C9
:1029B00090E080E0089585E290E00C94FD320E9462
:1029C000D1140E949B1481110CC060E070E0CB0117
:1029D0000E94DB140E9495160E94811781E00C94DE
:1029E000B4140895CF93FB01C281CC2309F19C015B
:1029F00022513F452031310520F582510E94911727
:102A0000C0E08C2FCF91089581E00E94ED2243E039
:102A100062E081E00E94FB08F3CF81E00E940E2378
:102A200043E062E081E00E94FB08EBCF82E0F6CF5A
:102A30008031FFE59F0789F381319F45B9F3C1E0FC
:102A4000E0CF8031EFE59E07F9F281319F45C9F66D
:102A500082E0DBCF2FEFFC0120830895CF93DF933B
:102A6000EC0188818138A9F028F4803871F0DF9179
:102A7000CF910895823881F08338C9F70E94EF0D15
:102A800089830E94F20D8A83F2CF0E94F50D89831B
:102A9000EECF0E94A40DFBCF0E94DA0DF8CFCF93AA
:102AA000DF93EC0188818138E1F028F4803869F007
:102AB000DF91CF910895823811F18338C9F70E94D0
:102AC000F50D482F6A81898108C0D9810E94F20DD5
:102AD000C82F0E94EF0D4D2F6C2FDF91CF910C94DA
:102AE0009B0F89810E94F9128981811104C0DF91B5
:102AF000CF910C946A12DF91CF910C942F1389819E
:102B0000DF91CF910C94EC0DEF92FF920F931F93F6
:102B1000CF93DF93EC01062FDC01ED91CD01E15065
:102B2000E33108F0BFC0F0E0EA59FC4C0C944232AB
:102B3000198289E08A83602FCE01DF91CF911F91A6
:102B40000F91FF90EF900C94112B8981823069F0E6
:102B5000833071F08130D9F40E9432270E944832CC
:102B60006A837B838C839D83E6CF0E94D214F6CF49
:102B70007E0110E0812F0E947B0BF70192838383FB
:102B80001F5FF2E0EF0EF11C1530A1F7D4CF602FDC
:102B9000CE010E942A15CFCF89818230C1F76A8188
:102BA0007B818C819D810E9448320E94DB14C3CFBF
:102BB0004B816A8189810E94671698278927982707
:102BC0009D838C83B8CF2C813D81322723273227E8
:102BD0004B816A8189810E948016ADCF0E94951633
:102BE000AACF0E944F15A7CF0E942E15A4CF0E94F6
:102BF0008A0DA1CF0E942A1789839DCF0E942C178E
:102C00009827892798279A83898395CF6B8170E0CD
:102C100089819A81AE014C5F5F4F98278927982759
:102C20000E942F1788CF6B8170E089819A81AE0155
:102C30004C5F5F4F9827892798270E9456177BCFB4
:102C40000E94811778CF0E945516D6CF6B8170E015
:102C500089819A81AE014C5F5F4F98278927982719
:102C60000E94CD1668CF6B8170E089819A81AE0198
:102C70004C5F5F4F9827892798270E94F3165BCFF8
:102C80000E94CC1458CFCE010E94112B2FEF81EE61
:102C900094E0215080409040E1F700C000000E9485
:102CA000712749CF8FEF888346CF84E0089550E0A5
:102CB000440F551F9EE1699F400D511D112496E957
:102CC000899F400D511D1124CA01869608950F93C6
:102CD0001F93CF93DF930E9457168C010E94E93215
:102CE000C82FD0E0DC2FCC27C80101960E94E93222
:102CF0009E01282BC901DF91CF911F910F9108955B
:102D00000F931F93CF93DF93122F032F0E94571619
:102D1000EC01602F0E94FD32612FCE010196DF9100
:102D2000CF911F910F910C94FD32AF92BF92CF9231
:102D3000DF92EF92FF921F93CF93DF938CEAC82E1E
:102D400080E0D82ED0E07601C0E014C0F5012591D6
:102D50003491412F6C2F8D2F0E94801682E0A80E97
:102D6000B11C1F5F1F3091F78EE1E80EF11CCF5FA1
:102D7000C53019F0570110E0E9CFDF5F86E9C80ED2
:102D8000D11CD43001F7DF91CF911F91FF90EF90CC
:102D9000DF90CF90BF90AF900895EF92FF920F9386
:102DA0001F93CF93DF93EC018A017C01E60EF71E9F
:102DB000CE018696CE15DF0539F4DF91CF911F91B4
:102DC0000F91FF90EF900895C83522E0D20740F4AC
:102DD0000E94E932F80180830F5F1F4F2196E8CFF0
:102DE000F8011082F9CFCF92DF92EF92FF920F930A
:102DF0001F93CF93DF937C016A018C01060F171F8D
:102E0000EC01CE018696C017D10749F4DF91CF912E
:102E10001F910F91FF90EF90DF90CF900895C835EC
:102E200022E0D20740F4FE01EE19FF09EC0DFD1D72
:102E300060810E94FD322196E4CF462F843038F421
:102E4000753028F46F3018F4672F0C94671690E0F3
:102E500080E0089580E1089582E891E00895EF927E
:102E6000FF920F931F93CF93DF93EC018A017C01B4
:102E7000E60EF71ECE0182589D4FCE15DF0539F4C0
:102E8000DF91CF911F910F91FF90EF900895C2387D
:102E900021E0D20740F40E94E932F80180830F5FFD
:102EA0001F4F2196E7CFF8011082F9CFCF92DF9222
:102EB000EF92FF920F931F93CF93DF937C016A01F0
:102EC0008C01060F171FEC01CE0182589D4FC017D1
:102ED000D10749F4DF91CF911F910F91FF90EF90AF
:102EE000DF90CF900895C23821E0D20740F4FE0170
:102EF000EE19FF09EC0DFD1D60810E94FD32219647
:102F0000E3CFCF93DF93CEE7D2E060E0CE010E9423
:102F1000FD322196C11584E0D807B9F7DF91CF9132
:102F20000895DF92EF92FF920F931F93CF93DF9359
:102F300000D000D0CDB7DEB7F82E8FE08F1540F06F
:102F40008FEF93E00E94E9320EE712E08823C1F090
:102F50000F900F900F900F90DF91CF911F910F91D5
:102F6000FF90EF90DF900895011584E0180781F33A
:102F7000C8010E94E932811101C0FA940F5F1F4F0E
:102F8000F110F2CF19821A821B821C82DD24D394A5
:102F900078018FEFE81AF80AC8010E94E9328983A4
:102FA0001A828823A9F29FEF980F933078F48A83CE
:102FB000D9820E5F1F4FC7010E94E9328B8388239D
:102FC00039F2CE0101960E94A408E2CF8701F9CF21
:102FD000AF92BF92CF92DF92EF92FF920F931F9327
:102FE000CF93DF937C015B01C42FD22FFC01828140
:102FF0008823F9F040936E030E94262790936D0377
:1030000080936C0380E28C0F883008F061C0C77039
:1030100081E001C0880FCA95EAF7DF91CF911F9137
:103020000F91FF90EF90DF90CF90BF90AF900C94F6
:10303000741C10916E03141340C080916C03909126
:103040006D030E943E276C01B701C5010E946621F5
:10305000C816D90690F5C0E2CD0F1D17B9F080E271
:10306000810F883040F4177081E001C0880F1A95F5
:10307000EAF70E947B1CC83048F481E09D2F9770CE
:1030800001C0880F9A95EAF70E94741C802F0E9455
:10309000611CC830E8F4D77081E001C0880FDA9570
:1030A000EAF7DF91CF911F910F91FF90EF90DF90A2
:1030B000CF90BF90AF900C947B1C80E28C0F883037
:1030C00038F4C77081E001C0880FCA95EAF7E9CFEC
:1030D000DF91CF911F910F91FF90EF90DF90CF90F4
:1030E000BF90AF9008950F939C01CB01233F4CE517
:1030F000340759F1A8F4283DFCE53F0701F1293DCB
:103100004CE53407D1F1273D3C4591F406E221EE30
:1031100041EE67ED7CE50E94E81780E00F9108958D
:10312000253FFCE53F07E9F0B0F0263F3C45F9F0CC
:10313000FC018281882339F110926E03EFCF07E200
:1031400025EE45EE68ED7CE5E6CF06E221EE40EEA9
:1031500063EF7CE5E0CF07E225EE44EE64EF7CE52B
:10316000DACF06E221EE42EE65EF7CE5D4CF07E24E
:1031700025EE46EE66EF7CE5CECF08E221E045EE97
:1031800069ED7CE5C8CF81E0C9CFCF93DF93EC0137
:10319000FB018281882309F419C1C230FCE5DF07F5
:1031A000C0F1C6319CE5D90730F09E012A5F3C454D
:1031B0002930310570F50E943A259093510580938E
:1031C0005005C031ECE5DE0709F4CFC008F05BC064
:1031D000C8308CE5D80709F4B6C088F5C430ECE5F2
:1031E000DE0709F4A8C0C0F4C2308CE5D80709F4A2
:1031F0009CC0809150058260C330DC4509F498C0C2
:1032000080915005909151050E9448250E94F01E22
:1032100080E0DF91CF910895809150058061C630A4
:10322000ECE5DE0709F484C0809150058860C73062
:10323000DC4508F47DC080915005806279C0CC30B7
:103240008CE5D80709F489C070F4809150058C6032
:10325000CA30ECE5DE0709F46BC008F478C0809151
:1032600050058E7F65C0CE308CE5D80709F479C053
:10327000809150058B7FCF30DC4508F459C0809198
:1032800050058F7E55C0CB3FECE5DE0709F457C0F3
:1032900030F5C3318CE5D80709F46FC078F4C1313B
:1032A000ECE5DE0709F465C0C231DC4509F0A8CFC2
:1032B0000E94F01E809150058F773AC0C5318CE591
:1032C000D80709F462C008F476C080915105816086
:1032D000CA3FDC4509F094CF8093510591CFCF3F91
:1032E000FCE5DF0709F44DC088F4809151058D7F1E
:1032F000CD3F9CE5D90781F3809151058E7FCE3F6C
:10330000DC4550F3809151058360E6CFC130FDE587
:10331000DF0709F459C008F444C080E0C230DD453D
:1033200009F06ECF0E94C6256BCF80915005816059
:103330008093500565CF809150058460F9CF8091CE
:1033400051058260C9CF809150058064F1CF0E9401
:10335000F01E809150058068EBCF809150058D7FE5
:10336000E7CF80915005877FE3CF809150058F7D17
:10337000DFCF809150058F7BDBCF80915005837F1D
:10338000D7CF809151058C7FA7CF8091500582FBCC
:10339000992790F921E0922790FB82F990FB83F91D
:1033A000C7CF80915105982F909591708E7F892B72
:1033B00090FB81F991CF0E94F01E90915005892FCA
:1033C00097FB87F98058B4CF81E0ACCF81E021CF63
:1033D000CF93DF93EB0186319C4511F50E94722457
:1033E0009A81992399F08A7A91E009F490E0909378
:1033F0006F03811109C089E20E944D240E94BE24FE
:1034000080E0DF91CF91089585E3F6CF80916F033F
:10341000811104C089E20E945424F0CF85E3FBCFE0
:1034200081E0EFCF90937503809374030895E0914A
:103430007403F0917503309721F00190F081E02D35
:10344000099480E00895E0917403F091750330973A
:1034500099F020912B01222359F02091500527FF4C
:1034600007C0DC012C9111962C93119725E02C9329
:103470000280F381E02D09940895E0917403F091A6
:103480007503309739F022E0DC012C930480F5813C
:10349000E02D099408952091720330917303281749
:1034A000390771F09093730380937203E091740372
:1034B000F0917503309721F00680F781E02D099493
:1034C000089520917003309171032817390771F026
:1034D0009093710380937003E0917403F0917503EE
:1034E000309721F00084F185E02D0994089585B787
:1034F000806885BF85B7806885BF08950895089561
:103500000C947E1A08950C94821A0E94771A0E94D5
:103510007F1A0C94801A81E008950C948B1A0E94F3
:103520001D270E94890B0E94DF140E94AE270E9473
:10353000FC120C94831A9F92AF92BF92CF92DF92AB
:10354000EF92FF920F931F93CF93DF93CDB7DEB728
:103550002A970FB6F894DEBF0FBECDBF0E94F10BC5
:103560000E948D1A882309F472C057E7A52E53E0F4
:10357000B52E10E000E0902E802F0E947B0B6C0196
:10358000F501E190F1905F01E816F90609F459C0E0
:103590008091190481FD0E94840B97012C253D2503
:1035A00080E0EE24E394F12CA9014E215F21452B0C
:1035B00009F441C08E839F82CE20DF2081E0CD2898
:1035C00009F480E088870E9426278160782F9A87F7
:1035D00089874E815F8168858A850E944A1B000F1A
:1035E000111FF801E958FC4F80819181E826F926E6
:1035F000F182E0820E943A130E9459290E94171A10
:10360000909176038917A1F10E94171A809376038F
:103610002A960FB6F894DEBF0FBECDBFDF91CF91D3
:103620001F910F91FF90EF90DF90CF90BF90AF90E0
:103630009F900C9477098F5FEE0CFF1C8F3009F080
:10364000B3CF0F5F1F4F0530110509F094CF8FEFF7
:1036500089838A831B820E9426278160782F9D831D
:103660008C8349815A816B818D810E944A1BC2CF14
:103670002A960FB6F894DEBF0FBECDBFDF91CF9173
:103680001F910F91FF90EF90DF90CF90BF90AF9080
:103690009F900895CF93DF93CDB7DEB72B970FB6EA
:1036A000F894DEBF0FBECDBF4F83588769877A87F6
:1036B0008B871E821D8285E0FE013796DE01119602
:1036C00001900D928A95E1F749815A816B817C8145
:1036D0008D819E812B960FB6F894DEBF0FBECDBFB5
:1036E000DF91CF910C946921FC01808191810C9430
:1036F0001F24CF93C82F882309F48BC08238C1F4CC
:103700000E94171A81FD85C089E30E944D240E9402
:10371000BE242FEF81EE94E0215080409040E1F7ED
:1037200000C0000089E30E945424CF910C94BE2471
:103730008338A1F40E94171A80FD6BC083E50E94B4
:103740004D240E94BE242FEF81EE94E02150804052
:103750009040E1F700C0000083E5E5CF8438A1F494
:103760000E94171A82FD55C087E40E944D240E94D2
:10377000BE242FEF81EE94E0215080409040E1F78D
:1037800000C0000087E4CFCF8CEF8C0F813A90F41B
:103790006C2F80911701909118010E94DF258823DA
:1037A00029F08C2F0E9454240E94BE248C2F0E944A
:1037B0004D24BBCF80E28C0F883048F4C77081E085
:1037C00001C0880FCA95EAF70E947524AECFEBE5D9
:1037D000EC0FE33040F4F0E0E653FE4F808190E0E0
:1037E000CF910C944B1AE8E5EC0FE73150F4F0E080
:1037F000EE0FFF1FE456FE4F80819181CF910C9414
:10380000611AC03F30F08C2F0E945328CF910C9446
:103810003E29CF910895882309F452C0823871F46B
:103820000E94171A81FF4CC089E30E944D240E9418
:10383000BE2489E30E9454240C94BE24833859F496
:103840000E94171A80FF3CC083E50E944D240E940D
:10385000BE2483E5EFCF843859F40E94171A82FF03
:103860002FC087E40E944D240E94BE2487E4E2CF4B
:103870009CEF980F913AF0F290E2980F983050F444
:10388000877091E001C0990F8A95EAF7892F0E940D
:103890007B24D2CF9BE5980F933020F490E080E01A
:1038A0000C944B1A98E5980F973120F490E080E043
:1038B0000C94611A803F20F00E94BB280C943E2992
:1038C0000895CF93C82F0E94791BC93349F42FEF75
:1038D00087EE93E0215080409040E1F700C0000067
:1038E0008C2FCF910C940B1C882321F00E947524FF
:1038F0000C94BE240895882321F00E947B240C940C
:10390000BE240895BF92CF92DF92EF92FF920F9361
:103910001F93CF93DF936C01D62FC72FFC01058136
:1039200002950F70128111110E9492240E946B2443
:10393000E82E882391F01123D1F08C2F807F8034E2
:1039400021F080E28D0F883090F082E00E940925FE
:103950000E946B2491E0E82EE926BC2EB2949FE0F1
:10396000B922EB2DF0E0E758FC4C0C944232E12CEC
:10397000F4CF0C2F0F70C07F11F00295007F112340
:10398000A9F0002359F080E28D0F883010F0D1119A
:1039900009C0802F0E9475240E94BE248D2F0E9492
:1039A000791B14C0802F0E948524F6CF8D2F0E9492
:1039B0000B1C002359F080E28D0F883010F0D111DC
:1039C0002CC0802F0E947B240E94BE242B2D2850C7
:1039D000330B2430310520F40E94171A0E94770916
:1039E000EE2009F49EC10E94672480FD9AC1F60171
:1039F00012820E9461240E94ED22C6010E94B21E22
:103A00000E946124DF91CF911F910F91FF90EF9061
:103A1000DF90CF90BF900C940E23802F0E948B24B8
:103A2000D3CFFC2FFF70FF2EC07FC03219F0F2946D
:103A300080EFF822DD2369F0D13049F1112391F1B3
:103A4000002351F1F601858180FFA8CF8F70858317
:103A500023C0112381F0011106C00E94A5248F29E3
:103A60000E94741CB3CF0130C1F70E94A5248F2996
:103A70000E94AB24ABCF011106C00E94B4248F2D4D
:103A80000E947B1CA3CF013009F4A0CFF6CF1123F5
:103A900029F0063008F09ACF8F2DE2CF053008F0DC
:103AA00095CFEDCF002359F3D93349F4FFEF27EE3B
:103AB00033E0F15020403040E1F700C000008D2F8E
:103AC0000E940B1C83CF8C2F86958695837069F09E
:103AD000813009F07BCF8D2F9C2F9370111102C084
:103AE00090E080E00E94611A71CF8D2F9C2F93701F
:103AF000111102C090E080E00E944B1A67CF8D2F19
:103B0000112329F00E9453280E943E295FCF0E9472
:103B1000BB28FACF8C2F837009F041C0111156CF0A
:103B20004D2F429546954770440F440F0D2F0F704F
:103B300010E030E020E0042E04C0000F111F221F0F
:103B4000331F0A94D2F760E070E0CB01D4FF0FC0BE
:103B50006FE070E080E090E004C0660F771F881F80
:103B6000991F4A95D2F76095709580959095C69566
:103B7000C695C370602B712B822B932BC23049F0FA
:103B800058F4C13019F00E949F2220CF0E948D224C
:103B90001DCF0E94B1221ACF0E948B2217CF86958B
:103BA000112311F08C2F8170882309F40FCF4D2F32
:103BB000429546954770440F440F0D2F0F7010E04B
:103BC00030E020E0042E04C0000F111F221F331F1D
:103BD0000A94D2F760E070E0CB01D4FF0FC06FE031
:103BE00070E080E090E004C0660F771F881F991F87
:103BF0004A95D2F76095709580959095C695C69533
:103C0000C370602B712B822B932BC23049F058F478
:103C1000C13019F00E946423D9CE0E945223D6CE1F
:103C20000E947623D3CE0E94C722D0CECF7011231C
:103C300029F08C2F0E94ED228D2F12CF8D2F0E9404
:103C40007B1C8C2F0E940E23C1CED23F89F160F4E1
:103C5000D03FC9F0D13F29F1112309F442C001112D
:103C60009DCE8C2F8F7121C0D33F39F1D43FA1F766
:103C7000112369F1CF718C2F0E94ED2263E08C2F0C
:103C80000E94F424A3CE112341F0053008F09ECE0B
:103C90008C2F8F710E94312399CE063008F096CE7A
:103CA000F7CF8C2F8F71112369F20E94ED228ECEF7
:103CB0008C2F8F711123C9F3C5CF112329F08C2FBD
:103CC0008F710E94D82282CE0E94D3227FCE81E0C3
:103CD0000E940925023008F479CE82E00E9409256D
:103CE00075CE002359F0D93309F0E9CE8FEF97EE66
:103CF000E3E081509040E040E1F7DFCE8C2F8F7100
:103D0000A1CF4C2F4F706D2FC6010E9494070E94C7
:103D100003225CCE4C2F4F706D2FC6010E947F098D
:103D200055CEDF91CF911F910F91FF90EF90DF90D3
:103D3000CF90BF9008950F931F93CF93DF93EC0123
:103D4000688179818A810E9429248C010E948823BC
:103D50000E948A22B801CE01DF91CF911F910F916D
:103D60000C94821CCF93DF93EC018B819C81892B77
:103D700029F08881998189238F3F59F4DF91CF9170
:103D80000895CE010E949B1ECE01DF91CF910C942D
:103D9000E507CE010E9429098111F3CF0E946B240F
:103DA000882361F38A81882349F382E0DF91CF91F0
:103DB0000C9409250E9492240E94A2240E94BE24F1
:103DC0000E94652A0E943E2990E080E00E944B1AE2
:103DD00090E080E00C94611A0E945B240C94DA1E3F
:103DE0000E9482240C94EC1EE92FE295EF70E250C1
:103DF000EE3070F4F0E0E757FC4C0C944232803F18
:103E000019F020F4883E20F481E00895843FE1F326
:103E100080E00895883EC0F3813FD1F7F5CF93FB52
:103E2000882780F908950E941F240C94F41ECF93D4
:103E3000DF9300D000D00F92CDB7DEB70F900F9078
:103E40000F900F900F90DF91CF910895CF93DF9354
:103E500000D000D000D0CDB7DEB726960FB6F894CC
:103E6000DEBF0FBECDBFDF91CF9108951F93CF93DB
:103E7000DF93C091820316E0809183038C1304C00A
:103E8000DF91CF911F910895D0E01C9FF0011D9FFD
:103E9000F00D1124EC57FC4F4081518162817381F8
:103EA000848195810E94261F2196C770E5CF40919D
:103EB000B4035091B5036091B6037091B70380913C
:103EC000B8039091B9030C94261F1F93CF93DF93EF
:103ED0008091B903807FA9F48091B603882389F08B
:103EE00080918203C09183036091B4037091B50304
:103EF000A091B703B091B803D62FD72316E0C8130B
:103F000004C0DF91CF911F91089590E0109711F0B8
:103F1000DF3F19F401968770F2CF189F9001199F27
:103F2000300D1124F901EC57FC4F41814713F2CFBA
:103F300040814613EFCF42814111ECCF4381548140
:103F40004A1B5B0B483C510528F78091B9038F70E1
:103F500080618093B903F901E757FC4F80818F702E
:103F60008061808384EB93E00E94B21EDF91CF9149
:103F70001F910C94361FAF92BF92CF92DF92EF92B7
:103F8000FF920F931F93CF93DF93CDB7DEB7619767
:103F90000FB6F894DEBF0FBECDBF8C0185E0F801EF
:103FA000DE011D9601900D928A95E1F7F80140819E
:103FB0005181E28084EBC82E83E0D82E6091B70354
:103FC0007091B8036115710509F461C19091B40352
:103FD0002091B503892F82238F3F09F458C1A38014
:103FE000B480F090B603F501E61BF70BFF2009F44F
:103FF000FCC08091B903382F307FE83CF10508F010
:10400000B2C0311179C0FE2C251323C0941321C0F6
:10401000E1101FC08F7080618093B9030E94571F09
:10402000C6010E94B21E8091B903F80185838F2DCD
:1040300061960FB6F894DEBF0FBECDBFDF91CF9172
:104040001F910F91FF90EF90DF90CF90BF90AF90B6
:104050000895AB2829F0842F85238F3F09F033C1C1
:1040600080E0F82FF170DF2E80FF3CC0809182034A
:104070002091830336E0821315C04D875E878D85BE
:104080009E850E941F24292F22952F702230F0F048
:10409000243018F59F70F1F0F8019581907FD1F4EC
:1040A000D12C1EC090E0389FF001399FF00D1124F3
:1040B000EC57FC4F6181651306C06081641303C037
:1040C00062816E110FC001968770D5CF9F7011F07D
:1040D000882331F3805E883018F3C8010E94B21E35
:1040E000FD2CA5CFEE2009F4A2CF8091B903816009
:1040F0008093B903F12C9BCF251306C0941304C001
:10410000F801EE2009F48DC04D875E878D859E8570
:104110000E94131F882319F1EE2009F18091B90341
:10412000803270F02091B4033091B50338872F832B
:104130001986BB86AA868C87CE0107960E94B21E7E
:1041400086E0F801A4EBB3E001900D928A95E1F7C7
:104150000E94651F0E94571FFF24F39468CFC80177
:104160000E94B21EF9CF311113C07A2DB98AA88AE4
:104170006E2D89890E94171F84EB93E00E94B21E66
:1041800086E0F60111928A95E9F70E94571FB2CF97
:1041900025130FC094130DC0E1100BC0F8018583E7
:1041A000C8010E94B21E86E0F60111928A95E9F7D5
:1041B0003ECF4D875E878D859E850E94131F882385
:1041C00071F2EE2061F28091B903803208F4B8CF29
:1041D0002091B4033091B5033A8329831B82BD82B9
:1041E000AC828E83CE010196A9CFE83CF10508F0A0
:1041F00041C0FE2CEE2009F4B2CF25132AC094133F
:1042000028C08091B90380FD1BC0982F907FC1F01A
:10421000F8018583903F31F0982F907F905F8F70E9
:10422000892B8583C8010E94B21E86E0F801A4EBA9
:10423000B3E001900D928A95E1F70E94571FF7CEE7
:1042400086E0F801A4EBB3E001900D928A95E1F7C6
:10425000EECE4D875E878D859E850E94131F81114E
:104260006FCF8091B90381608093B903C8010E9428
:10427000B21EDDCE7A2DB98AA88A6E2D89890E9458
:10428000171F86E0F60111928A95E9F7D6CFEE2046
:1042900009F465CF4D875E878D859E850E94131F2B
:1042A000F82E882309F45BCF86E0F801A4EBB3E095
:1042B00001900D928A95E1F784EB93E00E94741BC4
:1042C0000E94651FBACF81E08E25CBCE88EC90E0AE
:1042D00008951F93CF93DF93CDB7DEB72C970FB61A
:1042E000F894DEBF0FBECDBF4F83588769877A87AA
:1042F0008B879C87CE0107960E94BB1F882369F09D
:104300008A859B85892B39F04F815885842F852399
:104310008F3F09F071C016E05FC086E0FE0137965E
:10432000DE01119601900D928A95E1F78A859B85B1
:10433000892B89F38F81988589238F3F61F32091A1
:10434000830330E0C9010196877099274091820369
:104350004817190671F40E94F01E10928303109200
:10436000820386E0E4EBF3E0DF011D928A95E9F732
:10437000D2CF96E0929FD001939FB00D1124AC57FD
:10438000BC4FFE01319601900D929A95E1F7809312
:1043900083030E94361FBFCF819FC00111248C5719
:1043A0009C4F0E94BB1F8823E9F0E09182031E9F6F
:1043B000F0011124EC57FC4F4081518162817381DF
:1043C000848195810E94261F8091820390E001964E
:1043D0008770992780938203809182039091830351
:1043E0008913DACF2C960FB6F894DEBF0FBECDBF7F
:1043F000DF91CF911F91089569857A858B859C8582
:104400000E94261F88CFEF92FF920F931F93CF93A6
:10441000DF938C01892B81F0F12CEE24E394E801E9
:104420002196F8018491843770F4843008F05FC0DD
:104430008130B1F08230A1F1DF91CF911F910F91C6
:10444000FF90EF900895853709F44CC008F43DC003
:104450009CE7980F903780F78F770E940B1C49C01C
:104460000E5F1F4FFE01849190E2980F983060F428
:104470008770FE2D01C0FF0F8A95EAF78F2F0E94EB
:1044800095240E94BE2402C00E94791B8F2D81506A
:1044900030F2EFE9FFE03197F1F700C00000F7CF0D
:1044A0000E5F1F4FFE01849190E2980F983050F4F8
:1044B0008770FE2D01C0FF0F8A95EAF78F2F0E94AB
:1044C0009B24DFCF0E940B1CE1CF0E5F1F4FFE012C
:1044D000C491C150D8F28FE99FE00197F1F700C075
:1044E0000000F7CF0E5F1F4FFE01F490CFCF0E9468
:1044F000791B8E01CBCF08950C947B220E947C22E5
:104500006093F0037093F1038093F2039093F303AD
:104510000C94DA1E08950C947E220F931F93009141
:10452000F0031091F1032091F2033091F303602B1B
:10453000712B822B932B1F910F910C947E220F9342
:104540001F930091F0031091F1032091F203309139
:10455000F30360237123822393231F910F910C9403
:104560007E220F931F930091F0031091F10320918D
:10457000F2033091F30360277127822793271F915D
:104580000F910C947E220C947B220C94C3220E94E7
:10459000C5226093EC037093ED038093EE03909338
:1045A000EF030C94DA1E60E070E0CB010C94C7229C
:1045B0000F931F9341E050E060E070E08A019B019F
:1045C00004C0000F111F221F331F8A95D2F7C901A3
:1045D000B8011F910F910C94C7220F931F9341E0D4
:1045E00050E060E070E004C0440F551F661F771F65
:1045F0008A95D2F78091EC039091ED03A091EE03A0
:10460000B091EF038A019B01082B192B2A2B3B2B1E
:10461000C901B8011F910F910C94C7220F931F93EA
:1046200041E050E060E070E004C0440F551F661F99
:10463000771F8A95D2F7CB01BA0160957095809566
:1046400090950091EC031091ED032091EE033091D1
:10465000EF0360237123822393231F910F910C9406
:10466000C7220F931F9341E050E060E070E004C068
:10467000440F551F661F771F8A95D2F78091EC0370
:104680009091ED03A091EE03B091EF038A019B019D
:10469000082719272A273B27C901B8011F910F9125
:1046A0000C94C7220F931F930091EC031091ED031C
:1046B0002091EE033091EF03602B712B822B932B13
:1046C0001F910F910C94C7220F931F930091EC033D
:1046D0001091ED032091EE033091EF0360237123DD
:1046E000822393231F910F910C94C7220F931F9342
:1046F0000091EC031091ED032091EE033091EF0354
:1047000060277127822793271F910F910C94C7224E
:1047100008952FE0929F800D1124982F977041E00B
:1047200001C0440F9A95EAF786958695869595E09F
:10473000899FF0011124E654FC4F90E080E070E086
:104740005191DF0111979B01082E02C036952795E4
:104750000A94E2F7217021952527242325272C93FD
:1047600001968530910561F708952FE0929F800DA5
:104770001124982F977086958695869525E0829FBF
:10478000F0011124E654FC4F50E040E080E021911C
:1047900030E0092E02C0369527950A94E2F7217081
:1047A0003327042E01C0220F0A94EAF7822B4F5FB1
:1047B0005F4F4530510559F70895BF92CF92DF9270
:1047C000EF92FF920F931F93CF93DF938C01C090D2
:1047D000EC03D090ED03E090EE03F090EF038091B6
:1047E000F0039091F103A091F203B091F303C82A72
:1047F000D92AEA2AFB2ACFE1D0E0BC2ED701C60194
:104800000C2E04C0B695A795979587950A94D2F774
:1048100080FD0EC0219788F7B12C8B2DDF91CF91B1
:104820001F910F91FF90EF90DF90CF90BF90089570
:10483000B8018C2F0E948809019761F3EECFCF93C6
:10484000DF93EC010E94DD23BE01DF91CF910C9438
:1048500088091F93CF93DF93EB01909181039923F4
:1048600031F0CB01DF91CF911F910C941F2488234D
:1048700079F0CB010E94DD23182F682FCE010E9412
:104880008923BE01812FDF91CF911F910C9488095C
:10489000CB010E94B523182FF4CF682F8091170108
:1048A000909118010C945F26682F809117019091C8
:1048B00018010C946A2680911701909118010C94AC
:1048C00075268091F4038595859585950895809149
:1048D000F403877008959091F403977081E009F4D0
:1048E00080E0089580911804089590911804892B10
:1048F00080931804089580959091180498239093BC
:104900001804089510921804089590911704892BA3
:10491000809317040895809590911704982390939D
:104920001704089510921704089590911604892B86
:10493000809316040895809590911604982390937F
:10494000160408951092160408958091F5030895B1
:1049500008950C94A8249091F503981721F0809362
:10496000F5030C94A92408958091F503882329F078
:104970001092F50380E00C94A9240895E0911701AA
:10498000F0911801809118048083E0911701F09153
:104990001801808190911704892B8083E091170181
:1049A000F0911801808190911604892B8083909159
:1049B000F503992381F0E0911701F09118018081AE
:1049C000892B808380911701909118010E94CB253B
:1049D00081110E94B42480911701909118010C94C8
:1049E000231A08950C94F12498E0899F90011124D2
:1049F000622B6093F4030E94ED228091F40385956D
:104A0000859585950C94F2241092F40380E00C9423
:104A1000F2249091F403809589238093F403282F46
:104A2000277071F4282F082E000C330B92171306F1
:104A300039F08595859585950E940E230C94042563
:104A400008956FEF7FEF90E080E00C941B3390E0CF
:104A500080E00E94F73221E08C3E9E4F09F020E07A
:104A6000822F089582E090E00C94E93283E090E098
:104A70000C94E932CF9384E090E00E94E932C82F91
:104A800081E290E00E94E932982F8C2FCF91089517
:104A9000CF93C92F682F84E090E00E94FD326C2FE5
:104AA00081E290E0CF910C94FD32AB01BC018FE02C
:104AB00090E00C940F33AB01BC0183E190E00C94C7
:104AC0000F3360E070E0CB010C945B2560E070E098
:104AD000CB010E9455250C9461256CEE7EEF90E091
:104AE00080E00E941B3360E082E090E00E94FD3293
:104AF00060E083E090E00E94FD321092F00310929B
:104B0000F1031092F2031092F30360E084E090E06E
:104B10000E94FD3260E081E290E00E94FD3260E0A0
:104B200085E090E00E94FD3260E086E090E00E9427
:104B3000FD326FEF87E090E00E94FD3240E050E0F0
:104B4000BA0188E090E00E940F3360E08DE090E0D1
:104B50000E94FD3240E050E0BA0188E190E00E94FE
:104B60000F3360E087E190E00E94FD3240E050E0CA
:104B7000BA018CE190E00E940F3360E080E290E0A7
:104B80000E94FD320C9466250C946D25682F8EE0F2
:104B900090E00C94FD32FC01329680912B01882329
:104BA00021F0809150059EE187FF96E080E09150D2
:104BB00008F4089521912223D1F38F5FF8CF662363
:104BC00001F120912B012223F1F02091500527FFC4
:104BD0001AC0462F4695469546954E3190F467701B
:104BE00021E030E002C0220F331F6A95E2F7840F04
:104BF000911DFC01828190E02823392381E0232B41
:104C000069F480E00895FC013296089621912617F8
:104C100021F0E817F907D1F7F4CF81E008959C015E
:104C2000FC0132969FEF80E04191461751F09F3F83
:104C300019F4411101C0982F8F5F8630A9F79F3F6B
:104C400009F40895290F311D97FD3A95F901628302
:104C50000895FC01329608962191261303C0DF01C6
:104C600011971C92E817F907B9F70895E62FE69512
:104C7000E695E695EE3168F4E80FF92FF11D6770BF
:104C800021E030E001C0220F6A95EAF78281822B91
:104C900082830895E62FE695E695E695EE3170F469
:104CA000E80FF92FF11D677021E030E001C0220FFD
:104CB0006A95EAF72095828128232283089520911E
:104CC0002B01222329F02091500527FD0C94362634
:104CD0000C940F2620912B01222329F020915005BE
:104CE00027FD0C944A260C942926FC0132968091CB
:104CF0002B01882351F08091500587FF06C08EE17B
:104D0000DF011D928A95E9F7089586E0F9CF0895AD
:104D100008950C9488260E94892680915605843037
:104D200009F439C010921A0488E190E020E40FB62B
:104D3000F894A895809360000FBE2093600080E0F7
:104D40000E9477090E94371380911B0481110AC0C9
:104D500081E080931B0480916004817080931C0427
:104D60000E946A120E94892683B7817F846083BF74
:104D700083B7816083BF7894889583B78E7F83BF24
:104D80000FB6F894A89580916000886180936000C8
:104D9000109260000FBE08950895CF930E94872659
:104DA0000E94F10B0E94CC26C0E08C2F0E947B0B4E
:104DB000892B31F4CF5FC530C1F780E0CF910895E2
:104DC00081E0FCCF08950C94E2260E94F01E0E9420
:104DD000171A0E94770910921B0480911C048111FC
:104DE0000E942F130E947C120C94E3261F921FB680
:104DF0001F9211248F939F93AF93BF9380911A04B6
:104E0000811113C080914C0590914D05A0914E05E4
:104E1000B0914F054196A11DB11D80934C05909313
:104E20004D05A0934E05B0934F05BF91AF919F9153
:104E30008F911F901FBE1F90189582E084BD93E054
:104E400095BD9AEF97BD80936E0008952FB7F894A3
:104E500080914C0590914D05A0914E05B0914F0564
:104E60002FBF08952FB7F89460914C0570914D05B0
:104E700080914E0590914F052FBF08959C014FB72B
:104E8000F89480914C0590914D05A0914E05B091FC
:104E90004F054FBF821B930B089578941F921FB646
:104EA0001F9211248F939F93AF93BF9380914C05D2
:104EB00090914D05A0914E05B0914F050196A11D11
:104EC000B11D80934C0590934D05A0934E05B09372
:104ED0004F05BF91AF919F918F911F901FBE1F9063
:104EE000189581E08093E00080E28093D8001092D2
:104EF000C9008FE19EE40197F1F700C0000087E050
:104F000090EBDC0180935F0590936005A0936105B1
:104F1000B093620588E19CE00FB6F894A895809361
:104F200060000FBE90936000FFCF0C94CC140E94E1
:104F3000F10B2FEF86E791E0215080409040E1F7A0
:104F400000C000000E94F10B80E00E947B0B80FFFC
:104F500004C00E9495270C94712708950E9427256C
:104F6000811102C00E94C4250E9432258093190439
:104F70000E943A2590935105809350050E94362552
:104F8000682F70E090E080E00E948B226091EC033B
:104F90007091ED038091EE039091EF030C94C52284
:104FA0008091230480FF12C060911E0185E0689FFC
:104FB000B0011124759567957595679560387105F1
:104FC000A8F561157105A1F1862F089581FF09C02B
:104FD00060911E0185E0689FB00111247595679569
:104FE000EDCF60911E0182FD0AC0809122048823CA
:104FF000D1F090911D0160911E01891728F085E084
:10500000689FB0011124DACF869FB001112485E09A
:10501000869F9001879F300D1124692F70E0C90190
:105020000E940C32CBCF65E070E0CECF8FE70895C1
:1050300081E008958091230480FF0CC060911A01E3
:1050400070E075956795759567956115710549F1DE
:10505000862F089581FF06C060911A0170E0759552
:105060006795F3CF60911A0182FD0BC090912104E6
:105070009923A1F06091190180911A01961738F0D7
:10508000682F70E06038710500F38FE70895899FFD
:10509000C001112470E00E940C32F4CF61E070E096
:1050A000D7CF81E00895803F31F40E94D0278195C9
:1050B000809327040895813F19F40E94D027F8CFE8
:1050C000823F31F40E94D027819580932604089571
:1050D000833F19F40E94D027F8CF893F29F40E941A
:1050E0001A288093280408958A3F21F40E941A28E0
:1050F0008195F7CF8B3F31F40E941A2881958093D8
:10510000290408958C3F19F40E941A28F8CF843F8F
:1051100031F4809125048160809325040895853FB2
:1051200021F4809125048260F7CF863F21F480919D
:1051300025048460F1CF873F21F4809125048860A5
:10514000EBCF883F21F4809125048061E5CF8D3F2E
:1051500031F48091230481608093230408958E3F6D
:1051600021F4809123048260F7CF8F3FB9F78091BB
:1051700023048460F1CF90912604803F59F48091FC
:10518000270487FF0DC01092270491110BC01092C5
:10519000220408C0813F81F48091270418169CF3F3
:1051A000992381F08091280490912904892B09F09A
:1051B00064C0109221040895823F49F497FFF0CF14
:1051C00010922604809127048111ECCFE0CF833F19
:1051D00019F41916ACF3E4CF20912804893F29F47F
:1051E0001216F4F610922804DBCF8A3F19F427FF39
:1051F000D7CFF8CF209129048B3F29F427FFD0CFB8
:1052000010922904CDCF8C3F19F41216CCF3C8CFDD
:10521000843F31F4809125048E7F80932504C0CF94
:10522000853F21F4809125048D7FF7CF863F21F4BF
:10523000809125048B7FF1CF873F21F48091250455
:10524000877FEBCF883F21F4809125048F7EE5CFC7
:105250008D3F31F4809123048E7F80932304A0CF6F
:105260008E3F21F4809123048D7FF7CF8F3F09F08B
:1052700097CF809123048B7FF0CF08950E9426273B
:105280009C019091260480912704982B21F0309363
:10529000200420931F049091280480912904982BC6
:1052A00021F030931E0420931D0484E294E00C94BA
:1052B0003D1AEF92FF920F931F93CF93DF9300D08D
:1052C00000D000D0CDB7DEB786E0E4E2F4E0DE0146
:1052D000119601900D928A95E1F7E0902604F090E6
:1052E000270400912804109129041092260410929A
:1052F000270410922804109229048E2D8F2991F0F2
:1053000080911F04909120040E943E27AC0190914F
:105310002204992309F43FC080911F0184171506C8
:1053200008F447C0802F812B91F080911D0490914B
:105330001E040E943E27AC0190912104992309F498
:1053400077C080911B018417150608F47FC08091F7
:10535000260490912704892B90912804892B909101
:105360002904892B11F00E943E2986E0FE01319626
:10537000A4E2B4E001900D928A95E1F726960FB66B
:10538000F894DEBF0FBECDBFDF91CF911F910F917B
:10539000FF90EF900895209120018AE0289F9001CE
:1053A00011242417350708F0BDCF9F5F9093220486
:1053B00002C09F3FD1F7EE2059F00E94D0279FEF07
:1053C0001E140CF491E0899F802D112480932604F3
:1053D000FF2059F00E94D0279FEF1F140CF491E09A
:1053E000899F802D11248093270430912604332334
:1053F00009F498CF20912704222309F493CF45EB99
:105400003403C0011124992359F09093260445EBED
:10541000240390011124332339F03093270482CFE1
:1054200081E080932604F3CF81E0809327047ACF34
:1054300020911C018AE0289F900111242417350730
:1054400008F085CF9F5F9093210402C09F3FD1F762
:10545000002359F00E941A289FEF10160CF491E0D7
:10546000899F802D112480932804112359F00E94D4
:105470001A289FEF11160CF491E0899F802D1124BA
:105480008093290430912804332309F460CF2091BC
:105490002904222309F45BCF45EB3403C001112416
:1054A000992359F09093280445EB2403900111248B
:1054B000332339F0309329044ACF81E080932804C4
:1054C000F3CF81E08093290442CF86E0E4E2F4E068
:1054D000DF011D928A95E9F71092220410922104AF
:1054E00010922304089580914A040895CF93DF9386
:1054F00000D00F92CDB7DEB790915605943011F5DC
:1055000089837B836A839093E9008FEF9091E80011
:10551000815095FD06C095ED9A95F1F70000811137
:10552000F5CF8091E80085FF0DC050E040E063E0DA
:1055300070E0CE0101960E94FE2C8091E8008E77EB
:105540008093E8000F900F900F90DF91CF91089516
:10555000BC0184E00C94762ABC0183E00C94762A8A
:105560009C0184E08093E9009FEF8091E8009150D6
:1055700085FD06C085ED8A95F1F700009111F5CF04
:105580008091E80085FF0CC050E040E066E070E0EC
:10559000C9010E94FE2C8091E8008E778093E8007C
:1055A0000895CF93DF93EC0180912B018823B1F113
:1055B0008091500587FF32C060E284E08093E9006B
:1055C0008FEF9091E800815095FD06C095ED9A957A
:1055D000F1F700008111F5CF8091E80085FF1BC035
:1055E00080912B0170E050E040E0811104C050E058
:1055F00040E068E070E0CE010E94FE2C8091E8005F
:105600008E778093E80080E2FE01AAE2B4E0019088
:105610000D928A95E1F7DF91CF91089568E081E0DE
:10562000CDCFCF93FC01603221F5809156058430B7
:1056300001F5C091E900CF702091EC00922F91709C
:1056400020FD90E8C92B82E08093E9008091E8007A
:1056500080FF0CC050E040E060E270E0CF010E94AB
:10566000FE2C8091E8008E778093E800CF70C09385
:10567000E900CF91089580915505811109C00E94DC
:10568000DD2E0E943A2F8091E20084608093E20038
:105690000895109255050895089508950C94E526EF
:1056A00042E061EC81E00E94592E42E261EC84E02C
:1056B0000E94592E42E261EC82E00E94592E42E2A1
:1056C00060EC83E00C94592E80915805833009F4E6
:1056D00061C030F48130D1F1823009F49DC0089569
:1056E0008A3009F489C08B3009F46FC0893009F021
:1056F00050C080915705813209F04BC080915B0505
:1057000090915C05009719F0029709F042C08091D2
:10571000E800877F8093E8008091E80082FF35C031
:105720009091F3008091F200029729F48091F100AA
:105730008B7F813021F48091F10080934A04809125
:10574000E8008B778093E8000C948D2E80915705AC
:10575000813AF9F48091E800877F8093E800809196
:105760005B0590915C05892B61F460E28AE294E02C
:1057700070E00E949C2D8091E8008B778093E80078
:10578000089560E090E080E0F3CF809156058111AC
:10579000C3CF089580915705813AD9F780915B0571
:1057A00090915C05892BA9F78091E800877F809311
:1057B000E8008091E80080FFFCCF80912B0180936E
:1057C000F1008091E8008E77BDCF8091570581323E
:1057D00001F780915B0590915C05892BD1F6809152
:1057E000E800877F8093E8000E948D2E8091590504
:1057F00080932B010C94F01E80915705813249F65D
:105800008091E800877F8093E8000E948D2E809130
:105810005A0580934B04089580915705813A09F009
:10582000B8CF8091E800877F8093E8008091E800FE
:1058300080FFFCCF80914B04C2CFCDB7DEB7A097DD
:105840000FB6F894DEBF0FBECDBF84B7877F84BF8D
:105850000FB6F894A89580916000886180936000ED
:10586000109260000FBE80E890E00FB6F89480932D
:105870006100909361000FBE0E94851A0E94DD2E88
:105880000E943A2F8091E20084608093E200789435
:105890000E94C3310E948F1A81E291E00E94121A85
:1058A00013E080915605853039F10E949B1A809152
:1058B00056058430B1F71093E9008091E80082FF2B
:1058C000F0CF8091E80090E085FF09C050E040E013
:1058D00060E270E0CE0101960E944D2D91E0809132
:1058E000E8008B778093E8009923D9F260E2CE013B
:1058F00001960E948415D5CF0E948B268091540575
:10590000882379F20E94CD26882359F20E94E82C40
:10591000C8CF0C948B2C292F33272330310521F14C
:1059200068F42130310509F449C02230310509F409
:105930004AC090E080E030E020E029C0213231050B
:1059400081F122323105A9F76330710590F7FB012F
:10595000EE0FFF1FE053FE4F2081318163537E4FD6
:10596000FB01808190E013C099278130910599F067
:10597000009741F08230910589F00397D1F6E6EC6B
:10598000FCE002C0E6E0FDE0849190E09F01FA01B6
:10599000318320830895E4EEFCE0F6CFECECFCE0EC
:1059A000F3CF6330710528F6660F771FFB01EA52CB
:1059B000FE4F2081318189E090E0E9CF82E190E0E3
:1059C00025E63DE0E4CF8BE590E02AE03DE0DFCF47
:1059D00080E189BD82E189BD09B400FEFDCF8091DF
:1059E000D8008F7D8093D8008091E0008260809302
:1059F000E0008091E00081FDFCCF0895AF92BF925E
:105A0000CF92DF92FF920F931F93CF93DF936C019E
:105A1000EB018A010E94AC2EF82E811123C00115E2
:105A2000110539F0F80180819181C81BD90BC80E8E
:105A3000D91EB12CA12C2097A9F08091E80085FDFA
:105A400022C08091E8008E778093E800011511054F
:105A5000A1F0F80180819181A80EB91EB182A082C7
:105A600085E0F82E8F2DDF91CF911F910F91FF9040
:105A7000DF90CF90BF90AF9008950E94AC2E882306
:105A8000D1F2F82EEFCFF60181916F018093F100F2
:105A90002197FFEFAF1ABF0ACECFAF92BF92CF923E
:105AA000DF92FF920F931F93CF93DF936C01EB0173
:105AB0008A010E94AC2EF82E811123C00115110518
:105AC00039F0F80180819181C81BD90BC80ED91E0D
:105AD000B12CA12C2097A9F08091E80085FD22C06F
